{
  "contractName": "SimpleStorage",
  "abi": [
    {
      "anonymous": false,
      "inputs": [
        {
          "indexed": false,
          "internalType": "uint256",
          "name": "id",
          "type": "uint256"
        }
      ],
      "name": "CAPRegistered",
      "type": "event"
    },
    {
      "anonymous": false,
      "inputs": [
        {
          "indexed": false,
          "internalType": "string",
          "name": "CIP",
          "type": "string"
        }
      ],
      "name": "patientRegistered",
      "type": "event"
    },
    {
      "anonymous": false,
      "inputs": [
        {
          "indexed": false,
          "internalType": "address",
          "name": "",
          "type": "address"
        }
      ],
      "name": "patientWithFeverFound",
      "type": "event"
    },
    {
      "anonymous": false,
      "inputs": [
        {
          "indexed": false,
          "internalType": "address",
          "name": "",
          "type": "address"
        }
      ],
      "name": "symptomsAdded",
      "type": "event"
    },
    {
      "constant": false,
      "inputs": [
        {
          "internalType": "uint256",
          "name": "threshold",
          "type": "uint256"
        }
      ],
      "name": "registerCAP",
      "outputs": [],
      "payable": false,
      "stateMutability": "nonpayable",
      "type": "function"
    },
    {
      "constant": false,
      "inputs": [
        {
          "internalType": "address",
          "name": "patientAddress",
          "type": "address"
        },
        {
          "internalType": "string",
          "name": "CIP",
          "type": "string"
        },
        {
          "internalType": "string",
          "name": "email",
          "type": "string"
        }
      ],
      "name": "registerPatient",
      "outputs": [],
      "payable": false,
      "stateMutability": "nonpayable",
      "type": "function"
    },
    {
      "constant": true,
      "inputs": [],
      "name": "getAllPatientsFromCAP",
      "outputs": [
        {
          "components": [
            {
              "internalType": "string",
              "name": "CIP",
              "type": "string"
            },
            {
              "internalType": "string",
              "name": "email",
              "type": "string"
            },
            {
              "internalType": "uint256",
              "name": "registerTime",
              "type": "uint256"
            },
            {
              "internalType": "uint256",
              "name": "lastCheck",
              "type": "uint256"
            },
            {
              "internalType": "bool",
              "name": "hasCheckedIn",
              "type": "bool"
            },
            {
              "internalType": "uint256",
              "name": "CAP",
              "type": "uint256"
            },
            {
              "internalType": "bool",
              "name": "exists",
              "type": "bool"
            }
          ],
          "internalType": "struct SimpleStorage.patientData[]",
          "name": "",
          "type": "tuple[]"
        }
      ],
      "payable": false,
      "stateMutability": "view",
      "type": "function"
    },
    {
      "constant": false,
      "inputs": [
        {
          "internalType": "uint256",
          "name": "fever",
          "type": "uint256"
        }
      ],
      "name": "addSymptoms",
      "outputs": [],
      "payable": false,
      "stateMutability": "nonpayable",
      "type": "function"
    },
    {
      "constant": true,
      "inputs": [],
      "name": "getCAPThreshold",
      "outputs": [
        {
          "internalType": "uint256",
          "name": "",
          "type": "uint256"
        }
      ],
      "payable": false,
      "stateMutability": "view",
      "type": "function"
    }
  ],
  "bytecode": "0x6080604052600060075534801561001557600080fd5b506113fd806100256000396000f3fe608060405234801561001057600080fd5b50600436106100575760003560e01c80631bc9f1b21461005c57806337d9179914610078578063b58d13f914610094578063f764d03a146100b0578063f8fa61ef146100ce575b600080fd5b61007660048036036100719190810190610edf565b6100ec565b005b610092600480360361008d9190810190610e56565b610194565b005b6100ae60048036036100a99190810190610edf565b61055d565b005b6100b861071b565b6040516100c5919061121a565b60405180910390f35b6100d6610775565b6040516100e391906111d4565b60405180910390f35b600160075401600781905550600754600560003373ffffffffffffffffffffffffffffffffffffffff1673ffffffffffffffffffffffffffffffffffffffff1681526020019081526020016000208190555080600660006007548152602001908152602001600020819055507f37a772838065ce109b993964c275efe6a484b5a189faca1e6c265bc745608bdb600754604051610189919061121a565b60405180910390a150565b61019c610c21565b84848080601f016020809104026020016040519081016040528093929190818152602001838380828437600081840152601f19601f82011690508083019250505050505050816000018190525082828080601f016020809104026020016040519081016040528093929190818152602001838380828437600081840152601f19601f8201169050808301925050505050505081602001819052504281604001818152505042816060018181525050600560003373ffffffffffffffffffffffffffffffffffffffff1673ffffffffffffffffffffffffffffffffffffffff168152602001908152602001600020548160a001818152505060018160c001901515908115158152505080600160008873ffffffffffffffffffffffffffffffffffffffff1673ffffffffffffffffffffffffffffffffffffffff1681526020019081526020016000206000820151816000019080519060200190610300929190610c62565b50602082015181600101908051906020019061031d929190610c62565b50604082015181600201556060820151816003015560808201518160040160006101000a81548160ff02191690831515021790555060a0820151816005015560c08201518160060160006101000a81548160ff0219169083151502179055509050508560028686604051610392929190611189565b908152602001604051809103902060006101000a81548173ffffffffffffffffffffffffffffffffffffffff021916908373ffffffffffffffffffffffffffffffffffffffff16021790555060036000600560003373ffffffffffffffffffffffffffffffffffffffff1673ffffffffffffffffffffffffffffffffffffffff16815260200190815260200160002054815260200190815260200160002085859091806001815401808255809150509060018203906000526020600020016000909192939091929390919290919250919061046e929190610ce2565b5050600160046000600560003373ffffffffffffffffffffffffffffffffffffffff1673ffffffffffffffffffffffffffffffffffffffff168152602001908152602001600020548152602001908152602001600020540160046000600560003373ffffffffffffffffffffffffffffffffffffffff1673ffffffffffffffffffffffffffffffffffffffff168152602001908152602001600020548152602001908152602001600020819055507ff44dce3e3220b3e80476f4b6420c678d18890dbc3ddb792643c55fcf31f91269858560405161054d9291906111f6565b60405180910390a1505050505050565b610565610d62565b60405180604001604052804281526020018381525090506000803373ffffffffffffffffffffffffffffffffffffffff1673ffffffffffffffffffffffffffffffffffffffff1681526020019081526020016000208190806001815401808255809150509060018203906000526020600020906002020160009091929091909150600082015181600001556020820151816001015550505060018060003373ffffffffffffffffffffffffffffffffffffffff1673ffffffffffffffffffffffffffffffffffffffff16815260200190815260200160002060040160006101000a81548160ff02191690831515021790555042600160003373ffffffffffffffffffffffffffffffffffffffff1673ffffffffffffffffffffffffffffffffffffffff168152602001908152602001600020600301819055507fa49f6cdb7bee1202f270e77122ed51a8c7c97ba40eff357573110cca9fa1f4d7336040516106cd91906111b9565b60405180910390a1610e74821115610717577f5d1f1e484d16831dc8d9353c824c8b1c8eea668312aeceaa3a4f6bcadf15bc753360405161070e91906111b9565b60405180910390a15b5050565b600060066000600560003373ffffffffffffffffffffffffffffffffffffffff1673ffffffffffffffffffffffffffffffffffffffff16815260200190815260200160002054815260200190815260200160002054905090565b60608060046000600560003373ffffffffffffffffffffffffffffffffffffffff1673ffffffffffffffffffffffffffffffffffffffff1681526020019081526020016000205481526020019081526020016000205460405190808252806020026020018201604052801561080457816020015b6107f1610d7c565b8152602001906001900390816107e95790505b50905060008090506000809050600091505b60046000600560003373ffffffffffffffffffffffffffffffffffffffff1673ffffffffffffffffffffffffffffffffffffffff16815260200190815260200160002054815260200190815260200160002054821015610c185760016000600260036000600560003373ffffffffffffffffffffffffffffffffffffffff1673ffffffffffffffffffffffffffffffffffffffff16815260200190815260200160002054815260200190815260200160002085815481106108d357fe5b906000526020600020016040516108ea91906111a2565b908152602001604051809103902060009054906101000a900473ffffffffffffffffffffffffffffffffffffffff1673ffffffffffffffffffffffffffffffffffffffff1673ffffffffffffffffffffffffffffffffffffffff16815260200190815260200160002060060160009054906101000a900460ff1615610c0d5760016000600260036000600560003373ffffffffffffffffffffffffffffffffffffffff1673ffffffffffffffffffffffffffffffffffffffff16815260200190815260200160002054815260200190815260200160002085815481106109cc57fe5b906000526020600020016040516109e391906111a2565b908152602001604051809103902060009054906101000a900473ffffffffffffffffffffffffffffffffffffffff1673ffffffffffffffffffffffffffffffffffffffff1673ffffffffffffffffffffffffffffffffffffffff1681526020019081526020016000206040518060e0016040529081600082018054600181600116156101000203166002900480601f016020809104026020016040519081016040528092919081815260200182805460018160011615610100020316600290048015610af05780601f10610ac557610100808354040283529160200191610af0565b820191906000526020600020905b815481529060010190602001808311610ad357829003601f168201915b50505050508152602001600182018054600181600116156101000203166002900480601f016020809104026020016040519081016040528092919081815260200182805460018160011615610100020316600290048015610b925780601f10610b6757610100808354040283529160200191610b92565b820191906000526020600020905b815481529060010190602001808311610b7557829003601f168201915b5050505050815260200160028201548152602001600382015481526020016004820160009054906101000a900460ff16151515158152602001600582015481526020016006820160009054906101000a900460ff161515151581525050838281518110610bfb57fe5b60200260200101819052508060010190505b816001019150610816565b82935050505090565b6040518060e0016040528060608152602001606081526020016000815260200160008152602001600015158152602001600081526020016000151581525090565b828054600181600116156101000203166002900490600052602060002090601f016020900481019282601f10610ca357805160ff1916838001178555610cd1565b82800160010185558215610cd1579182015b82811115610cd0578251825591602001919060010190610cb5565b5b509050610cde9190610dbd565b5090565b828054600181600116156101000203166002900490600052602060002090601f016020900481019282601f10610d2357803560ff1916838001178555610d51565b82800160010185558215610d51579182015b82811115610d50578235825591602001919060010190610d35565b5b509050610d5e9190610dbd565b5090565b604051806040016040528060008152602001600081525090565b6040518060e0016040528060608152602001606081526020016000815260200160008152602001600015158152602001600081526020016000151581525090565b610ddf91905b80821115610ddb576000816000905550600101610dc3565b5090565b90565b600081359050610df18161138c565b92915050565b60008083601f840112610e0957600080fd5b8235905067ffffffffffffffff811115610e2257600080fd5b602083019150836001820283011115610e3a57600080fd5b9250929050565b600081359050610e50816113a3565b92915050565b600080600080600060608688031215610e6e57600080fd5b6000610e7c88828901610de2565b955050602086013567ffffffffffffffff811115610e9957600080fd5b610ea588828901610df7565b9450945050604086013567ffffffffffffffff811115610ec457600080fd5b610ed088828901610df7565b92509250509295509295909350565b600060208284031215610ef157600080fd5b6000610eff84828501610e41565b91505092915050565b6000610f1483836110c8565b905092915050565b610f2581611303565b82525050565b6000610f368261125a565b610f40818561127d565b935083602082028501610f5285611235565b8060005b85811015610f8e5784840389528151610f6f8582610f08565b9450610f7a83611270565b925060208a01995050600181019050610f56565b50829750879550505050505092915050565b610fa9816112cd565b82525050565b6000610fbb838561129f565b9350610fc8838584611339565b610fd18361137b565b840190509392505050565b6000610fe883856112b0565b9350610ff5838584611339565b82840190509392505050565b600061100c82611265565b611016818561128e565b9350611026818560208601611348565b61102f8161137b565b840191505092915050565b600081546001811660008114611057576001811461107c576110c0565b607f600283041661106881876112b0565b955060ff19831686528086019350506110c0565b6002820461108a81876112b0565b955061109585611245565b60005b828110156110b757815481890152600182019150602081019050611098565b82880195505050505b505092915050565b600060e08301600083015184820360008601526110e58282611001565b915050602083015184820360208601526110ff8282611001565b9150506040830151611114604086018261116b565b506060830151611127606086018261116b565b50608083015161113a6080860182610fa0565b5060a083015161114d60a086018261116b565b5060c083015161116060c0860182610fa0565b508091505092915050565b611174816112f9565b82525050565b611183816112f9565b82525050565b6000611196828486610fdc565b91508190509392505050565b60006111ae828461103a565b915081905092915050565b60006020820190506111ce6000830184610f1c565b92915050565b600060208201905081810360008301526111ee8184610f2b565b905092915050565b60006020820190508181036000830152611211818486610faf565b90509392505050565b600060208201905061122f600083018461117a565b92915050565b6000819050602082019050919050565b60008190508160005260206000209050919050565b600081519050919050565b600081519050919050565b6000602082019050919050565b600082825260208201905092915050565b600082825260208201905092915050565b600082825260208201905092915050565b600081905092915050565b60006112c6826112d9565b9050919050565b60008115159050919050565b600073ffffffffffffffffffffffffffffffffffffffff82169050919050565b6000819050919050565b600061130e82611315565b9050919050565b600061132082611327565b9050919050565b6000611332826112d9565b9050919050565b82818337600083830152505050565b60005b8381101561136657808201518184015260208101905061134b565b83811115611375576000848401525b50505050565b6000601f19601f8301169050919050565b611395816112bb565b81146113a057600080fd5b50565b6113ac816112f9565b81146113b757600080fd5b5056fea365627a7a7231582084fa6ca993261f8a41e1d5d098dd973ef72a31e28e5b4bf17aae1ba990c5d7dd6c6578706572696d656e74616cf564736f6c63430005100040",
  "source": "// SPDX-License-Identifier: MIT\npragma solidity >=0.5.0;\npragma experimental ABIEncoderV2;\n\ncontract SimpleStorage {\n\n  struct symptoms{\n    uint date;\n    uint fever;\n  }\n\n  struct patientData{\n    string CIP;\n    string email;\n    uint registerTime;\n    uint lastCheck;\n    bool hasCheckedIn;\n    uint CAP;\n    //symptoms[] symptomsArray;\n    bool exists;\n  }\n\n  mapping(address => symptoms[]) symptomsFromPatient;\n  mapping(address => patientData) patients;\n  mapping(string => address) addressFromCIP;\n  mapping(uint => string[]) patientsFromCAP;\n  mapping(uint => uint) activePatientsFromCAP;\n  mapping(address => uint) CAPs;\n  mapping(uint => uint) CAPThreshold;\n\n  uint CAPnumber = 0;\n\n  event patientRegistered(string CIP);\n  event CAPRegistered(uint id);\n  event symptomsAdded(address);\n  event patientWithFeverFound(address);\n\n  function registerCAP(uint threshold) external {\n    CAPnumber = CAPnumber+1;\n    CAPs[msg.sender] = CAPnumber;\n    CAPThreshold[CAPnumber] = threshold;\n\n    emit CAPRegistered(CAPnumber);\n  }\n\n  function registerPatient(address patientAddress, string calldata CIP, string calldata email) external{\n    patientData memory data;\n    data.CIP = CIP;\n    data.email = email;\n    data.registerTime = now;\n    data.lastCheck = now;\n    data.CAP = CAPs[msg.sender];\n    data.exists = true;\n    patients[patientAddress] = data;\n    addressFromCIP[CIP] = patientAddress;\n    patientsFromCAP[CAPs[msg.sender]].push(CIP);\n    activePatientsFromCAP[CAPs[msg.sender]] = activePatientsFromCAP[CAPs[msg.sender]]+1;\n\n    emit patientRegistered(CIP);\n  }\n\n  function getAllPatientsFromCAP() external view returns( patientData[] memory){\n    patientData[] memory ret = new patientData[](activePatientsFromCAP[CAPs[msg.sender]]);\n    uint i = 0;\n    uint retI = 0;\n    for(i=0; i<activePatientsFromCAP[CAPs[msg.sender]]; ++i){\n      if(patients[addressFromCIP[patientsFromCAP[CAPs[msg.sender]][i]]].exists){\n        ret[retI] = patients[addressFromCIP[patientsFromCAP[CAPs[msg.sender]][i]]];\n        ++retI;\n      }\n    }\n    return ret;\n  }\n\n  function addSymptoms(uint fever) public {\n    symptoms memory data = symptoms({date: now, fever:fever});\n    symptomsFromPatient[msg.sender].push(data);\n    patients[msg.sender].hasCheckedIn = true;\n    patients[msg.sender].lastCheck = now;\n\n\n    emit symptomsAdded(msg.sender);\n    if(fever > 3700){\n      emit patientWithFeverFound(msg.sender);\n    }\n  }\n\n  function getCAPThreshold() external view returns(uint){\n    return CAPThreshold[CAPs[msg.sender]];\n  }\n  \n}\n",
  "sourcePath": "G:/VID/hackaton/project/Wanikaniers/CAPClient/contracts/SimpleStorage.sol",
  "compiler": {
    "name": "solc",
    "version": "0.5.16+commit.9c3226ce.Emscripten.clang"
  },
  "schemaVersion": "3.0.22",
  "updatedAt": "2020-12-19T16:16:12.206Z",
  "devdoc": {
    "methods": {}
  },
  "userdoc": {
    "methods": {}
  }
}