{
  "contractName": "SimpleStorage",
  "abi": [
    {
      "anonymous": false,
      "inputs": [
        {
          "indexed": false,
          "internalType": "uint256",
          "name": "id",
          "type": "uint256"
        },
        {
          "indexed": false,
          "internalType": "address",
          "name": "",
          "type": "address"
        }
      ],
      "name": "CAPRegistered",
      "type": "event"
    },
    {
      "anonymous": false,
      "inputs": [
        {
          "indexed": false,
          "internalType": "string",
          "name": "CIP",
          "type": "string"
        },
        {
          "indexed": false,
          "internalType": "string",
          "name": "email",
          "type": "string"
        }
      ],
      "name": "patientRegistered",
      "type": "event"
    },
    {
      "anonymous": false,
      "inputs": [
        {
          "indexed": false,
          "internalType": "address",
          "name": "",
          "type": "address"
        }
      ],
      "name": "patientWithFeverFound",
      "type": "event"
    },
    {
      "anonymous": false,
      "inputs": [
        {
          "indexed": false,
          "internalType": "address",
          "name": "",
          "type": "address"
        }
      ],
      "name": "symptomsAdded",
      "type": "event"
    },
    {
      "constant": false,
      "inputs": [
        {
          "internalType": "uint256",
          "name": "threshold",
          "type": "uint256"
        }
      ],
      "name": "registerCAP",
      "outputs": [],
      "payable": false,
      "stateMutability": "nonpayable",
      "type": "function"
    },
    {
      "constant": false,
      "inputs": [
        {
          "internalType": "address",
          "name": "patientAddress",
          "type": "address"
        },
        {
          "internalType": "string",
          "name": "CIP",
          "type": "string"
        },
        {
          "internalType": "string",
          "name": "email",
          "type": "string"
        }
      ],
      "name": "registerPatient",
      "outputs": [],
      "payable": false,
      "stateMutability": "nonpayable",
      "type": "function"
    },
    {
      "constant": true,
      "inputs": [],
      "name": "getAllPatientsFromCAP",
      "outputs": [
        {
          "components": [
            {
              "internalType": "string",
              "name": "CIP",
              "type": "string"
            },
            {
              "internalType": "string",
              "name": "email",
              "type": "string"
            },
            {
              "internalType": "uint256",
              "name": "registerTime",
              "type": "uint256"
            },
            {
              "internalType": "uint256",
              "name": "lastCheck",
              "type": "uint256"
            },
            {
              "internalType": "bool",
              "name": "hasCheckedIn",
              "type": "bool"
            },
            {
              "internalType": "uint256",
              "name": "CAP",
              "type": "uint256"
            },
            {
              "internalType": "bool",
              "name": "exists",
              "type": "bool"
            }
          ],
          "internalType": "struct SimpleStorage.patientData[]",
          "name": "",
          "type": "tuple[]"
        }
      ],
      "payable": false,
      "stateMutability": "view",
      "type": "function"
    },
    {
      "constant": false,
      "inputs": [
        {
          "internalType": "uint256",
          "name": "fever",
          "type": "uint256"
        }
      ],
      "name": "addSymptoms",
      "outputs": [],
      "payable": false,
      "stateMutability": "nonpayable",
      "type": "function"
    },
    {
      "constant": true,
      "inputs": [],
      "name": "getCAPThreshold",
      "outputs": [
        {
          "internalType": "uint256",
          "name": "",
          "type": "uint256"
        }
      ],
      "payable": false,
      "stateMutability": "view",
      "type": "function"
    },
    {
      "constant": true,
      "inputs": [],
      "name": "getCAPNumber",
      "outputs": [
        {
          "internalType": "uint256",
          "name": "",
          "type": "uint256"
        }
      ],
      "payable": false,
      "stateMutability": "view",
      "type": "function"
    }
  ],
  "bytecode": "0x6080604052600060075534801561001557600080fd5b506114b3806100256000396000f3fe608060405234801561001057600080fd5b50600436106100625760003560e01c80631bc9f1b21461006757806337d9179914610083578063795597491461009f578063b58d13f9146100bd578063f764d03a146100d9578063f8fa61ef146100f7575b600080fd5b610081600480360361007c9190810190610f55565b610115565b005b61009d60048036036100989190810190610ecc565b6101bf565b005b6100a761058c565b6040516100b491906112a7565b60405180910390f35b6100d760048036036100d29190810190610f55565b6105d3565b005b6100e1610791565b6040516100ee91906112a7565b60405180910390f35b6100ff6107eb565b60405161010c919061124a565b60405180910390f35b600160075401600781905550600754600560003373ffffffffffffffffffffffffffffffffffffffff1673ffffffffffffffffffffffffffffffffffffffff1681526020019081526020016000208190555080600660006007548152602001908152602001600020819055507fd34d244cb4718304cff84c9eba1ab1054711e9deb2202987cd3b372867a90ac3600754336040516101b49291906112c2565b60405180910390a150565b6101c7610c97565b84848080601f016020809104026020016040519081016040528093929190818152602001838380828437600081840152601f19601f82011690508083019250505050505050816000018190525082828080601f016020809104026020016040519081016040528093929190818152602001838380828437600081840152601f19601f8201169050808301925050505050505081602001819052504281604001818152505042816060018181525050600560003373ffffffffffffffffffffffffffffffffffffffff1673ffffffffffffffffffffffffffffffffffffffff168152602001908152602001600020548160a001818152505060018160c001901515908115158152505080600160008873ffffffffffffffffffffffffffffffffffffffff1673ffffffffffffffffffffffffffffffffffffffff168152602001908152602001600020600082015181600001908051906020019061032b929190610cd8565b506020820151816001019080519060200190610348929190610cd8565b50604082015181600201556060820151816003015560808201518160040160006101000a81548160ff02191690831515021790555060a0820151816005015560c08201518160060160006101000a81548160ff02191690831515021790555090505085600286866040516103bd9291906111ff565b908152602001604051809103902060006101000a81548173ffffffffffffffffffffffffffffffffffffffff021916908373ffffffffffffffffffffffffffffffffffffffff16021790555060036000600560003373ffffffffffffffffffffffffffffffffffffffff1673ffffffffffffffffffffffffffffffffffffffff168152602001908152602001600020548152602001908152602001600020858590918060018154018082558091505090600182039060005260206000200160009091929390919293909192909192509190610499929190610d58565b5050600160046000600560003373ffffffffffffffffffffffffffffffffffffffff1673ffffffffffffffffffffffffffffffffffffffff168152602001908152602001600020548152602001908152602001600020540160046000600560003373ffffffffffffffffffffffffffffffffffffffff1673ffffffffffffffffffffffffffffffffffffffff168152602001908152602001600020548152602001908152602001600020819055507f64bddcd718f7ebcfc6dbdfd2592731fea8f36b979c86ebce078d91c76797089c8585858560405161057c949392919061126c565b60405180910390a1505050505050565b6000600560003373ffffffffffffffffffffffffffffffffffffffff1673ffffffffffffffffffffffffffffffffffffffff16815260200190815260200160002054905090565b6105db610dd8565b60405180604001604052804281526020018381525090506000803373ffffffffffffffffffffffffffffffffffffffff1673ffffffffffffffffffffffffffffffffffffffff1681526020019081526020016000208190806001815401808255809150509060018203906000526020600020906002020160009091929091909150600082015181600001556020820151816001015550505060018060003373ffffffffffffffffffffffffffffffffffffffff1673ffffffffffffffffffffffffffffffffffffffff16815260200190815260200160002060040160006101000a81548160ff02191690831515021790555042600160003373ffffffffffffffffffffffffffffffffffffffff1673ffffffffffffffffffffffffffffffffffffffff168152602001908152602001600020600301819055507fa49f6cdb7bee1202f270e77122ed51a8c7c97ba40eff357573110cca9fa1f4d733604051610743919061122f565b60405180910390a1610e7482111561078d577f5d1f1e484d16831dc8d9353c824c8b1c8eea668312aeceaa3a4f6bcadf15bc7533604051610784919061122f565b60405180910390a15b5050565b600060066000600560003373ffffffffffffffffffffffffffffffffffffffff1673ffffffffffffffffffffffffffffffffffffffff16815260200190815260200160002054815260200190815260200160002054905090565b60608060046000600560003373ffffffffffffffffffffffffffffffffffffffff1673ffffffffffffffffffffffffffffffffffffffff1681526020019081526020016000205481526020019081526020016000205460405190808252806020026020018201604052801561087a57816020015b610867610df2565b81526020019060019003908161085f5790505b50905060008090506000809050600091505b60046000600560003373ffffffffffffffffffffffffffffffffffffffff1673ffffffffffffffffffffffffffffffffffffffff16815260200190815260200160002054815260200190815260200160002054821015610c8e5760016000600260036000600560003373ffffffffffffffffffffffffffffffffffffffff1673ffffffffffffffffffffffffffffffffffffffff168152602001908152602001600020548152602001908152602001600020858154811061094957fe5b906000526020600020016040516109609190611218565b908152602001604051809103902060009054906101000a900473ffffffffffffffffffffffffffffffffffffffff1673ffffffffffffffffffffffffffffffffffffffff1673ffffffffffffffffffffffffffffffffffffffff16815260200190815260200160002060060160009054906101000a900460ff1615610c835760016000600260036000600560003373ffffffffffffffffffffffffffffffffffffffff1673ffffffffffffffffffffffffffffffffffffffff1681526020019081526020016000205481526020019081526020016000208581548110610a4257fe5b90600052602060002001604051610a599190611218565b908152602001604051809103902060009054906101000a900473ffffffffffffffffffffffffffffffffffffffff1673ffffffffffffffffffffffffffffffffffffffff1673ffffffffffffffffffffffffffffffffffffffff1681526020019081526020016000206040518060e0016040529081600082018054600181600116156101000203166002900480601f016020809104026020016040519081016040528092919081815260200182805460018160011615610100020316600290048015610b665780601f10610b3b57610100808354040283529160200191610b66565b820191906000526020600020905b815481529060010190602001808311610b4957829003601f168201915b50505050508152602001600182018054600181600116156101000203166002900480601f016020809104026020016040519081016040528092919081815260200182805460018160011615610100020316600290048015610c085780601f10610bdd57610100808354040283529160200191610c08565b820191906000526020600020905b815481529060010190602001808311610beb57829003601f168201915b5050505050815260200160028201548152602001600382015481526020016004820160009054906101000a900460ff16151515158152602001600582015481526020016006820160009054906101000a900460ff161515151581525050838281518110610c7157fe5b60200260200101819052508060010190505b81600101915061088c565b82935050505090565b6040518060e0016040528060608152602001606081526020016000815260200160008152602001600015158152602001600081526020016000151581525090565b828054600181600116156101000203166002900490600052602060002090601f016020900481019282601f10610d1957805160ff1916838001178555610d47565b82800160010185558215610d47579182015b82811115610d46578251825591602001919060010190610d2b565b5b509050610d549190610e33565b5090565b828054600181600116156101000203166002900490600052602060002090601f016020900481019282601f10610d9957803560ff1916838001178555610dc7565b82800160010185558215610dc7579182015b82811115610dc6578235825591602001919060010190610dab565b5b509050610dd49190610e33565b5090565b604051806040016040528060008152602001600081525090565b6040518060e0016040528060608152602001606081526020016000815260200160008152602001600015158152602001600081526020016000151581525090565b610e5591905b80821115610e51576000816000905550600101610e39565b5090565b90565b600081359050610e6781611442565b92915050565b60008083601f840112610e7f57600080fd5b8235905067ffffffffffffffff811115610e9857600080fd5b602083019150836001820283011115610eb057600080fd5b9250929050565b600081359050610ec681611459565b92915050565b600080600080600060608688031215610ee457600080fd5b6000610ef288828901610e58565b955050602086013567ffffffffffffffff811115610f0f57600080fd5b610f1b88828901610e6d565b9450945050604086013567ffffffffffffffff811115610f3a57600080fd5b610f4688828901610e6d565b92509250509295509295909350565b600060208284031215610f6757600080fd5b6000610f7584828501610eb7565b91505092915050565b6000610f8a838361113e565b905092915050565b610f9b816113b9565b82525050565b6000610fac82611310565b610fb68185611333565b935083602082028501610fc8856112eb565b8060005b858110156110045784840389528151610fe58582610f7e565b9450610ff083611326565b925060208a01995050600181019050610fcc565b50829750879550505050505092915050565b61101f81611383565b82525050565b60006110318385611355565b935061103e8385846113ef565b61104783611431565b840190509392505050565b600061105e8385611366565b935061106b8385846113ef565b82840190509392505050565b60006110828261131b565b61108c8185611344565b935061109c8185602086016113fe565b6110a581611431565b840191505092915050565b6000815460018116600081146110cd57600181146110f257611136565b607f60028304166110de8187611366565b955060ff1983168652808601935050611136565b600282046111008187611366565b955061110b856112fb565b60005b8281101561112d5781548189015260018201915060208101905061110e565b82880195505050505b505092915050565b600060e083016000830151848203600086015261115b8282611077565b915050602083015184820360208601526111758282611077565b915050604083015161118a60408601826111e1565b50606083015161119d60608601826111e1565b5060808301516111b06080860182611016565b5060a08301516111c360a08601826111e1565b5060c08301516111d660c0860182611016565b508091505092915050565b6111ea816113af565b82525050565b6111f9816113af565b82525050565b600061120c828486611052565b91508190509392505050565b600061122482846110b0565b915081905092915050565b60006020820190506112446000830184610f92565b92915050565b600060208201905081810360008301526112648184610fa1565b905092915050565b60006040820190508181036000830152611287818688611025565b9050818103602083015261129c818486611025565b905095945050505050565b60006020820190506112bc60008301846111f0565b92915050565b60006040820190506112d760008301856111f0565b6112e46020830184610f92565b9392505050565b6000819050602082019050919050565b60008190508160005260206000209050919050565b600081519050919050565b600081519050919050565b6000602082019050919050565b600082825260208201905092915050565b600082825260208201905092915050565b600082825260208201905092915050565b600081905092915050565b600061137c8261138f565b9050919050565b60008115159050919050565b600073ffffffffffffffffffffffffffffffffffffffff82169050919050565b6000819050919050565b60006113c4826113cb565b9050919050565b60006113d6826113dd565b9050919050565b60006113e88261138f565b9050919050565b82818337600083830152505050565b60005b8381101561141c578082015181840152602081019050611401565b8381111561142b576000848401525b50505050565b6000601f19601f8301169050919050565b61144b81611371565b811461145657600080fd5b50565b611462816113af565b811461146d57600080fd5b5056fea365627a7a723158205b52f7ba67723a6194187d874b3bdccaaa166ad567121c2d0aa579c141b7376f6c6578706572696d656e74616cf564736f6c63430005100040",
  "source": "// SPDX-License-Identifier: MIT\r\npragma solidity >=0.5.0;\r\npragma experimental ABIEncoderV2;\r\n\r\ncontract SimpleStorage {\r\n\r\n  struct symptoms{\r\n    uint date;\r\n    uint fever;\r\n  }\r\n\r\n  struct patientData{\r\n    string CIP;\r\n    string email;\r\n    uint registerTime;\r\n    uint lastCheck;\r\n    bool hasCheckedIn;\r\n    uint CAP;\r\n    //symptoms[] symptomsArray;\r\n    bool exists;\r\n  }\r\n\r\n  mapping(address => symptoms[]) symptomsFromPatient;\r\n  mapping(address => patientData) patients;\r\n  mapping(string => address) addressFromCIP;\r\n  mapping(uint => string[]) patientsFromCAP;\r\n  mapping(uint => uint) activePatientsFromCAP;\r\n  mapping(address => uint) CAPs;\r\n  mapping(uint => uint) CAPThreshold;\r\n\r\n  uint CAPnumber = 0;\r\n\r\n  event patientRegistered(string CIP, string email);\r\n  event CAPRegistered(uint id, address);\r\n  event symptomsAdded(address);\r\n  event patientWithFeverFound(address);\r\n\r\n  function registerCAP(uint threshold) external {\r\n    CAPnumber = CAPnumber+1;\r\n    CAPs[msg.sender] = CAPnumber;\r\n    CAPThreshold[CAPnumber] = threshold;\r\n\r\n    emit CAPRegistered(CAPnumber, msg.sender);\r\n  }\r\n\r\n  function registerPatient(address patientAddress, string calldata CIP, string calldata email) external{\r\n    patientData memory data;\r\n    data.CIP = CIP;\r\n    data.email = email;\r\n    data.registerTime = now;\r\n    data.lastCheck = now;\r\n    data.CAP = CAPs[msg.sender];\r\n    data.exists = true;\r\n    patients[patientAddress] = data;\r\n    addressFromCIP[CIP] = patientAddress;\r\n    patientsFromCAP[CAPs[msg.sender]].push(CIP);\r\n    activePatientsFromCAP[CAPs[msg.sender]] = activePatientsFromCAP[CAPs[msg.sender]]+1;\r\n\r\n    emit patientRegistered(CIP,email);\r\n  }\r\n\r\n  function getAllPatientsFromCAP() external view returns( patientData[] memory){\r\n    patientData[] memory ret = new patientData[](activePatientsFromCAP[CAPs[msg.sender]]);\r\n    uint i = 0;\r\n    uint retI = 0;\r\n    for(i=0; i<activePatientsFromCAP[CAPs[msg.sender]]; ++i){\r\n      if(patients[addressFromCIP[patientsFromCAP[CAPs[msg.sender]][i]]].exists){\r\n        ret[retI] = patients[addressFromCIP[patientsFromCAP[CAPs[msg.sender]][i]]];\r\n        ++retI;\r\n      }\r\n    }\r\n    return ret;\r\n  }\r\n\r\n  function addSymptoms(uint fever) public {\r\n    symptoms memory data = symptoms({date: now, fever:fever});\r\n    symptomsFromPatient[msg.sender].push(data);\r\n    patients[msg.sender].hasCheckedIn = true;\r\n    patients[msg.sender].lastCheck = now;\r\n\r\n\r\n    emit symptomsAdded(msg.sender);\r\n    if(fever > 3700){\r\n      emit patientWithFeverFound(msg.sender);\r\n    }\r\n  }\r\n\r\n  function getCAPThreshold() external view returns(uint){\r\n    return CAPThreshold[CAPs[msg.sender]];\r\n  }\r\n\r\n  function getCAPNumber() external view returns(uint){\r\n    return CAPs[msg.sender];\r\n  }\r\n  \r\n}\r\n",
  "sourcePath": "G:/VID/hackaton/project/Wanikaniers/CAPClient/contracts/SimpleStorage.sol",
  "compiler": {
    "name": "solc",
    "version": "0.5.16+commit.9c3226ce.Emscripten.clang"
  },
  "schemaVersion": "3.0.22",
  "updatedAt": "2020-12-19T18:27:52.263Z",
  "networkType": "ethereum",
  "devdoc": {
    "methods": {}
  },
  "userdoc": {
    "methods": {}
  }
}