{
  "contractName": "SimpleStorage",
  "abi": [
    {
      "anonymous": false,
      "inputs": [
        {
          "indexed": false,
          "internalType": "uint256",
          "name": "id",
          "type": "uint256"
        },
        {
          "indexed": false,
          "internalType": "address",
          "name": "",
          "type": "address"
        }
      ],
      "name": "CAPRegistered",
      "type": "event"
    },
    {
      "anonymous": false,
      "inputs": [
        {
          "indexed": false,
          "internalType": "string",
          "name": "CIP",
          "type": "string"
        },
        {
          "indexed": false,
          "internalType": "string",
          "name": "email",
          "type": "string"
        }
      ],
      "name": "patientRegistered",
      "type": "event"
    },
    {
      "anonymous": false,
      "inputs": [
        {
          "indexed": false,
          "internalType": "address",
          "name": "",
          "type": "address"
        }
      ],
      "name": "patientWithFeverFound",
      "type": "event"
    },
    {
      "anonymous": false,
      "inputs": [
        {
          "indexed": false,
          "internalType": "address",
          "name": "",
          "type": "address"
        }
      ],
      "name": "symptomsAdded",
      "type": "event"
    },
    {
      "constant": false,
      "inputs": [
        {
          "internalType": "uint256",
          "name": "threshold",
          "type": "uint256"
        }
      ],
      "name": "registerCAP",
      "outputs": [],
      "payable": false,
      "stateMutability": "nonpayable",
      "type": "function"
    },
    {
      "constant": false,
      "inputs": [
        {
          "internalType": "address",
          "name": "patientAddress",
          "type": "address"
        },
        {
          "internalType": "string",
          "name": "CIP",
          "type": "string"
        },
        {
          "internalType": "string",
          "name": "email",
          "type": "string"
        }
      ],
      "name": "registerPatient",
      "outputs": [],
      "payable": false,
      "stateMutability": "nonpayable",
      "type": "function"
    },
    {
      "constant": true,
      "inputs": [],
      "name": "getAllPatientsFromCAP",
      "outputs": [
        {
          "components": [
            {
              "internalType": "string",
              "name": "CIP",
              "type": "string"
            },
            {
              "internalType": "string",
              "name": "email",
              "type": "string"
            },
            {
              "internalType": "uint256",
              "name": "registerTime",
              "type": "uint256"
            },
            {
              "internalType": "uint256",
              "name": "lastCheck",
              "type": "uint256"
            },
            {
              "internalType": "bool",
              "name": "hasCheckedIn",
              "type": "bool"
            },
            {
              "internalType": "uint256",
              "name": "CAP",
              "type": "uint256"
            },
            {
              "internalType": "bool",
              "name": "exists",
              "type": "bool"
            }
          ],
          "internalType": "struct SimpleStorage.patientData[]",
          "name": "",
          "type": "tuple[]"
        }
      ],
      "payable": false,
      "stateMutability": "view",
      "type": "function"
    },
    {
      "constant": false,
      "inputs": [
        {
          "internalType": "string",
          "name": "CIP",
          "type": "string"
        }
      ],
      "name": "getSymptomsfromCIP",
      "outputs": [
        {
          "components": [
            {
              "internalType": "uint256",
              "name": "date",
              "type": "uint256"
            },
            {
              "internalType": "uint256",
              "name": "fever",
              "type": "uint256"
            }
          ],
          "internalType": "struct SimpleStorage.symptoms[]",
          "name": "",
          "type": "tuple[]"
        }
      ],
      "payable": false,
      "stateMutability": "nonpayable",
      "type": "function"
    },
    {
      "constant": false,
      "inputs": [
        {
          "internalType": "string",
          "name": "CIP",
          "type": "string"
        }
      ],
      "name": "getPatientfromCIP",
      "outputs": [
        {
          "components": [
            {
              "internalType": "string",
              "name": "CIP",
              "type": "string"
            },
            {
              "internalType": "string",
              "name": "email",
              "type": "string"
            },
            {
              "internalType": "uint256",
              "name": "registerTime",
              "type": "uint256"
            },
            {
              "internalType": "uint256",
              "name": "lastCheck",
              "type": "uint256"
            },
            {
              "internalType": "bool",
              "name": "hasCheckedIn",
              "type": "bool"
            },
            {
              "internalType": "uint256",
              "name": "CAP",
              "type": "uint256"
            },
            {
              "internalType": "bool",
              "name": "exists",
              "type": "bool"
            }
          ],
          "internalType": "struct SimpleStorage.patientData",
          "name": "",
          "type": "tuple"
        }
      ],
      "payable": false,
      "stateMutability": "nonpayable",
      "type": "function"
    },
    {
      "constant": false,
      "inputs": [
        {
          "internalType": "string",
          "name": "CIP",
          "type": "string"
        }
      ],
      "name": "searchPatientSymptoms",
      "outputs": [],
      "payable": false,
      "stateMutability": "nonpayable",
      "type": "function"
    },
    {
      "constant": false,
      "inputs": [
        {
          "internalType": "uint256",
          "name": "fever",
          "type": "uint256"
        }
      ],
      "name": "addSymptoms",
      "outputs": [],
      "payable": false,
      "stateMutability": "nonpayable",
      "type": "function"
    },
    {
      "constant": true,
      "inputs": [],
      "name": "getCAPThreshold",
      "outputs": [
        {
          "internalType": "uint256",
          "name": "",
          "type": "uint256"
        }
      ],
      "payable": false,
      "stateMutability": "view",
      "type": "function"
    },
    {
      "constant": true,
      "inputs": [],
      "name": "getCAPNumber",
      "outputs": [
        {
          "internalType": "uint256",
          "name": "",
          "type": "uint256"
        }
      ],
      "payable": false,
      "stateMutability": "view",
      "type": "function"
    }
  ],
  "bytecode": "0x6080604052600060075534801561001557600080fd5b50611a9e806100256000396000f3fe608060405234801561001057600080fd5b50600436106100935760003560e01c8063b58d13f911610066578063b58d13f91461010a578063be42b4f514610126578063cef22e3e14610156578063f764d03a14610186578063f8fa61ef146101a457610093565b80631bc9f1b21461009857806337d91799146100b457806345c06b41146100d057806379559749146100ec575b600080fd5b6100b260048036036100ad919081019061137b565b6101c2565b005b6100ce60048036036100c991908101906112ad565b61026c565b005b6100ea60048036036100e59190810190611336565b610639565b005b6100f461063d565b6040516101019190611859565b60405180910390f35b610124600480360361011f919081019061137b565b610684565b005b610140600480360361013b9190810190611336565b610842565b60405161014d91906117da565b60405180910390f35b610170600480360361016b9190810190611336565b61093a565b60405161017d9190611837565b60405180910390f35b61018e610b72565b60405161019b9190611859565b60405180910390f35b6101ac610bcc565b6040516101b991906117b8565b60405180910390f35b600160075401600781905550600754600560003373ffffffffffffffffffffffffffffffffffffffff1673ffffffffffffffffffffffffffffffffffffffff1681526020019081526020016000208190555080600660006007548152602001908152602001600020819055507fd34d244cb4718304cff84c9eba1ab1054711e9deb2202987cd3b372867a90ac360075433604051610261929190611874565b60405180910390a150565b610274611078565b84848080601f016020809104026020016040519081016040528093929190818152602001838380828437600081840152601f19601f82011690508083019250505050505050816000018190525082828080601f016020809104026020016040519081016040528093929190818152602001838380828437600081840152601f19601f8201169050808301925050505050505081602001819052504281604001818152505042816060018181525050600560003373ffffffffffffffffffffffffffffffffffffffff1673ffffffffffffffffffffffffffffffffffffffff168152602001908152602001600020548160a001818152505060018160c001901515908115158152505080600160008873ffffffffffffffffffffffffffffffffffffffff1673ffffffffffffffffffffffffffffffffffffffff16815260200190815260200160002060008201518160000190805190602001906103d89291906110b9565b5060208201518160010190805190602001906103f59291906110b9565b50604082015181600201556060820151816003015560808201518160040160006101000a81548160ff02191690831515021790555060a0820151816005015560c08201518160060160006101000a81548160ff021916908315150217905550905050856002868660405161046a92919061176d565b908152602001604051809103902060006101000a81548173ffffffffffffffffffffffffffffffffffffffff021916908373ffffffffffffffffffffffffffffffffffffffff16021790555060036000600560003373ffffffffffffffffffffffffffffffffffffffff1673ffffffffffffffffffffffffffffffffffffffff168152602001908152602001600020548152602001908152602001600020858590918060018154018082558091505090600182039060005260206000200160009091929390919293909192909192509190610546929190611139565b5050600160046000600560003373ffffffffffffffffffffffffffffffffffffffff1673ffffffffffffffffffffffffffffffffffffffff168152602001908152602001600020548152602001908152602001600020540160046000600560003373ffffffffffffffffffffffffffffffffffffffff1673ffffffffffffffffffffffffffffffffffffffff168152602001908152602001600020548152602001908152602001600020819055507f64bddcd718f7ebcfc6dbdfd2592731fea8f36b979c86ebce078d91c76797089c8585858560405161062994939291906117fc565b60405180910390a1505050505050565b5050565b6000600560003373ffffffffffffffffffffffffffffffffffffffff1673ffffffffffffffffffffffffffffffffffffffff16815260200190815260200160002054905090565b61068c6111b9565b60405180604001604052804281526020018381525090506000803373ffffffffffffffffffffffffffffffffffffffff1673ffffffffffffffffffffffffffffffffffffffff1681526020019081526020016000208190806001815401808255809150509060018203906000526020600020906002020160009091929091909150600082015181600001556020820151816001015550505060018060003373ffffffffffffffffffffffffffffffffffffffff1673ffffffffffffffffffffffffffffffffffffffff16815260200190815260200160002060040160006101000a81548160ff02191690831515021790555042600160003373ffffffffffffffffffffffffffffffffffffffff1673ffffffffffffffffffffffffffffffffffffffff168152602001908152602001600020600301819055507fa49f6cdb7bee1202f270e77122ed51a8c7c97ba40eff357573110cca9fa1f4d7336040516107f4919061179d565b60405180910390a1610e7482111561083e577f5d1f1e484d16831dc8d9353c824c8b1c8eea668312aeceaa3a4f6bcadf15bc7533604051610835919061179d565b60405180910390a15b5050565b606060006002848460405161085892919061176d565b908152602001604051809103902060009054906101000a900473ffffffffffffffffffffffffffffffffffffffff1690506000808273ffffffffffffffffffffffffffffffffffffffff1673ffffffffffffffffffffffffffffffffffffffff168152602001908152602001600020805480602002602001604051908101604052809291908181526020016000905b8282101561092d578382906000526020600020906002020160405180604001604052908160008201548152602001600182015481525050815260200190600101906108e7565b5050505091505092915050565b610942611078565b60006002848460405161095692919061176d565b908152602001604051809103902060009054906101000a900473ffffffffffffffffffffffffffffffffffffffff169050600160008273ffffffffffffffffffffffffffffffffffffffff1673ffffffffffffffffffffffffffffffffffffffff1681526020019081526020016000206040518060e0016040529081600082018054600181600116156101000203166002900480601f016020809104026020016040519081016040528092919081815260200182805460018160011615610100020316600290048015610a6a5780601f10610a3f57610100808354040283529160200191610a6a565b820191906000526020600020905b815481529060010190602001808311610a4d57829003601f168201915b50505050508152602001600182018054600181600116156101000203166002900480601f016020809104026020016040519081016040528092919081815260200182805460018160011615610100020316600290048015610b0c5780601f10610ae157610100808354040283529160200191610b0c565b820191906000526020600020905b815481529060010190602001808311610aef57829003601f168201915b5050505050815260200160028201548152602001600382015481526020016004820160009054906101000a900460ff16151515158152602001600582015481526020016006820160009054906101000a900460ff16151515158152505091505092915050565b600060066000600560003373ffffffffffffffffffffffffffffffffffffffff1673ffffffffffffffffffffffffffffffffffffffff16815260200190815260200160002054815260200190815260200160002054905090565b60608060046000600560003373ffffffffffffffffffffffffffffffffffffffff1673ffffffffffffffffffffffffffffffffffffffff16815260200190815260200160002054815260200190815260200160002054604051908082528060200260200182016040528015610c5b57816020015b610c486111d3565b815260200190600190039081610c405790505b50905060008090506000809050600091505b60046000600560003373ffffffffffffffffffffffffffffffffffffffff1673ffffffffffffffffffffffffffffffffffffffff1681526020019081526020016000205481526020019081526020016000205482101561106f5760016000600260036000600560003373ffffffffffffffffffffffffffffffffffffffff1673ffffffffffffffffffffffffffffffffffffffff1681526020019081526020016000205481526020019081526020016000208581548110610d2a57fe5b90600052602060002001604051610d419190611786565b908152602001604051809103902060009054906101000a900473ffffffffffffffffffffffffffffffffffffffff1673ffffffffffffffffffffffffffffffffffffffff1673ffffffffffffffffffffffffffffffffffffffff16815260200190815260200160002060060160009054906101000a900460ff16156110645760016000600260036000600560003373ffffffffffffffffffffffffffffffffffffffff1673ffffffffffffffffffffffffffffffffffffffff1681526020019081526020016000205481526020019081526020016000208581548110610e2357fe5b90600052602060002001604051610e3a9190611786565b908152602001604051809103902060009054906101000a900473ffffffffffffffffffffffffffffffffffffffff1673ffffffffffffffffffffffffffffffffffffffff1673ffffffffffffffffffffffffffffffffffffffff1681526020019081526020016000206040518060e0016040529081600082018054600181600116156101000203166002900480601f016020809104026020016040519081016040528092919081815260200182805460018160011615610100020316600290048015610f475780601f10610f1c57610100808354040283529160200191610f47565b820191906000526020600020905b815481529060010190602001808311610f2a57829003601f168201915b50505050508152602001600182018054600181600116156101000203166002900480601f016020809104026020016040519081016040528092919081815260200182805460018160011615610100020316600290048015610fe95780601f10610fbe57610100808354040283529160200191610fe9565b820191906000526020600020905b815481529060010190602001808311610fcc57829003601f168201915b5050505050815260200160028201548152602001600382015481526020016004820160009054906101000a900460ff16151515158152602001600582015481526020016006820160009054906101000a900460ff16151515158152505083828151811061105257fe5b60200260200101819052508060010190505b816001019150610c6d565b82935050505090565b6040518060e0016040528060608152602001606081526020016000815260200160008152602001600015158152602001600081526020016000151581525090565b828054600181600116156101000203166002900490600052602060002090601f016020900481019282601f106110fa57805160ff1916838001178555611128565b82800160010185558215611128579182015b8281111561112757825182559160200191906001019061110c565b5b5090506111359190611214565b5090565b828054600181600116156101000203166002900490600052602060002090601f016020900481019282601f1061117a57803560ff19168380011785556111a8565b828001600101855582156111a8579182015b828111156111a757823582559160200191906001019061118c565b5b5090506111b59190611214565b5090565b604051806040016040528060008152602001600081525090565b6040518060e0016040528060608152602001606081526020016000815260200160008152602001600015158152602001600081526020016000151581525090565b61123691905b8082111561123257600081600090555060010161121a565b5090565b90565b60008135905061124881611a2d565b92915050565b60008083601f84011261126057600080fd5b8235905067ffffffffffffffff81111561127957600080fd5b60208301915083600182028301111561129157600080fd5b9250929050565b6000813590506112a781611a44565b92915050565b6000806000806000606086880312156112c557600080fd5b60006112d388828901611239565b955050602086013567ffffffffffffffff8111156112f057600080fd5b6112fc8882890161124e565b9450945050604086013567ffffffffffffffff81111561131b57600080fd5b6113278882890161124e565b92509250509295509295909350565b6000806020838503121561134957600080fd5b600083013567ffffffffffffffff81111561136357600080fd5b61136f8582860161124e565b92509250509250929050565b60006020828403121561138d57600080fd5b600061139b84828501611298565b91505092915050565b60006113b0838361167d565b905092915050565b60006113c48383611720565b60408301905092915050565b6113d9816119a4565b82525050565b60006113ea826118d2565b6113f4818561190d565b9350836020820285016114068561189d565b8060005b85811015611442578484038952815161142385826113a4565b945061142e836118f3565b925060208a0199505060018101905061140a565b50829750879550505050505092915050565b600061145f826118dd565b611469818561191e565b9350611474836118ad565b8060005b838110156114a557815161148c88826113b8565b975061149783611900565b925050600181019050611478565b5085935050505092915050565b6114bb8161196e565b82525050565b60006114cd8385611940565b93506114da8385846119da565b6114e383611a1c565b840190509392505050565b60006114fa8385611951565b93506115078385846119da565b82840190509392505050565b600061151e826118e8565b611528818561192f565b93506115388185602086016119e9565b61154181611a1c565b840191505092915050565b600081546001811660008114611569576001811461158e576115d2565b607f600283041661157a8187611951565b955060ff19831686528086019350506115d2565b6002820461159c8187611951565b95506115a7856118bd565b60005b828110156115c9578154818901526001820191506020810190506115aa565b82880195505050505b505092915050565b600060e08301600083015184820360008601526115f78282611513565b915050602083015184820360208601526116118282611513565b9150506040830151611626604086018261174f565b506060830151611639606086018261174f565b50608083015161164c60808601826114b2565b5060a083015161165f60a086018261174f565b5060c083015161167260c08601826114b2565b508091505092915050565b600060e083016000830151848203600086015261169a8282611513565b915050602083015184820360208601526116b48282611513565b91505060408301516116c9604086018261174f565b5060608301516116dc606086018261174f565b5060808301516116ef60808601826114b2565b5060a083015161170260a086018261174f565b5060c083015161171560c08601826114b2565b508091505092915050565b604082016000820151611736600085018261174f565b506020820151611749602085018261174f565b50505050565b6117588161199a565b82525050565b6117678161199a565b82525050565b600061177a8284866114ee565b91508190509392505050565b6000611792828461154c565b915081905092915050565b60006020820190506117b260008301846113d0565b92915050565b600060208201905081810360008301526117d281846113df565b905092915050565b600060208201905081810360008301526117f48184611454565b905092915050565b600060408201905081810360008301526118178186886114c1565b9050818103602083015261182c8184866114c1565b905095945050505050565b6000602082019050818103600083015261185181846115da565b905092915050565b600060208201905061186e600083018461175e565b92915050565b6000604082019050611889600083018561175e565b61189660208301846113d0565b9392505050565b6000819050602082019050919050565b6000819050602082019050919050565b60008190508160005260206000209050919050565b600081519050919050565b600081519050919050565b600081519050919050565b6000602082019050919050565b6000602082019050919050565b600082825260208201905092915050565b600082825260208201905092915050565b600082825260208201905092915050565b600082825260208201905092915050565b600081905092915050565b60006119678261197a565b9050919050565b60008115159050919050565b600073ffffffffffffffffffffffffffffffffffffffff82169050919050565b6000819050919050565b60006119af826119b6565b9050919050565b60006119c1826119c8565b9050919050565b60006119d38261197a565b9050919050565b82818337600083830152505050565b60005b83811015611a075780820151818401526020810190506119ec565b83811115611a16576000848401525b50505050565b6000601f19601f8301169050919050565b611a368161195c565b8114611a4157600080fd5b50565b611a4d8161199a565b8114611a5857600080fd5b5056fea365627a7a7231582052910c2aacc1ebd3e7090d214886e7d9bb189128566aa597370353edb528ad0e6c6578706572696d656e74616cf564736f6c63430005100040",
  "source": "// SPDX-License-Identifier: MIT\r\npragma solidity >=0.5.0;\r\npragma experimental ABIEncoderV2;\r\n\r\ncontract SimpleStorage {\r\n\r\n  struct symptoms{\r\n    uint date;\r\n    uint fever;\r\n  }\r\n\r\n  struct patientData{\r\n    string CIP;\r\n    string email;\r\n    uint registerTime;\r\n    uint lastCheck;\r\n    bool hasCheckedIn;\r\n    uint CAP;\r\n    //symptoms[] symptomsArray;\r\n    bool exists;\r\n  }\r\n\r\n  mapping(address => symptoms[]) symptomsFromPatient;\r\n  mapping(address => patientData) patients;\r\n  mapping(string => address) addressFromCIP;\r\n  mapping(uint => string[]) patientsFromCAP;\r\n  mapping(uint => uint) activePatientsFromCAP;\r\n  mapping(address => uint) CAPs;\r\n  mapping(uint => uint) CAPThreshold;\r\n\r\n  uint CAPnumber = 0;\r\n\r\n  event patientRegistered(string CIP, string email);\r\n  event CAPRegistered(uint id, address);\r\n  event symptomsAdded(address);\r\n  event patientWithFeverFound(address);\r\n\r\n  function registerCAP(uint threshold) external {\r\n    CAPnumber = CAPnumber+1;\r\n    CAPs[msg.sender] = CAPnumber;\r\n    CAPThreshold[CAPnumber] = threshold;\r\n\r\n    emit CAPRegistered(CAPnumber, msg.sender);\r\n  }\r\n\r\n  function registerPatient(address patientAddress, string calldata CIP, string calldata email) external{\r\n    patientData memory data;\r\n    data.CIP = CIP;\r\n    data.email = email;\r\n    data.registerTime = now;\r\n    data.lastCheck = now;\r\n    data.CAP = CAPs[msg.sender];\r\n    data.exists = true;\r\n    patients[patientAddress] = data;\r\n    addressFromCIP[CIP] = patientAddress;\r\n    patientsFromCAP[CAPs[msg.sender]].push(CIP);\r\n    activePatientsFromCAP[CAPs[msg.sender]] = activePatientsFromCAP[CAPs[msg.sender]]+1;\r\n\r\n    emit patientRegistered(CIP,email);\r\n  }\r\n\r\n  function getAllPatientsFromCAP() external view returns( patientData[] memory){\r\n    patientData[] memory ret = new patientData[](activePatientsFromCAP[CAPs[msg.sender]]);\r\n    uint i = 0;\r\n    uint retI = 0;\r\n    for(i=0; i<activePatientsFromCAP[CAPs[msg.sender]]; ++i){\r\n      if(patients[addressFromCIP[patientsFromCAP[CAPs[msg.sender]][i]]].exists){\r\n        ret[retI] = patients[addressFromCIP[patientsFromCAP[CAPs[msg.sender]][i]]];\r\n        ++retI;\r\n      }\r\n    }\r\n    return ret;\r\n  }\r\n\r\n  function getSymptomsfromCIP(string calldata CIP) external returns(symptoms[] memory){\r\n    address patient = addressFromCIP[CIP];\r\n    return symptomsFromPatient[patient];\r\n  }\r\n\r\n  function getPatientfromCIP(string calldata CIP) external returns(patientData memory){\r\n    address patient = addressFromCIP[CIP];\r\n    return patients[patient];\r\n  }\r\n\r\n  function searchPatientSymptoms(string calldata CIP) external {\r\n    //symptomsFromPatient[address];\r\n  }\r\n\r\n  function addSymptoms(uint fever) public {\r\n    symptoms memory data = symptoms({date: now, fever:fever});\r\n    symptomsFromPatient[msg.sender].push(data);\r\n    patients[msg.sender].hasCheckedIn = true;\r\n    patients[msg.sender].lastCheck = now;\r\n\r\n\r\n    emit symptomsAdded(msg.sender);\r\n    if(fever > 3700){\r\n      emit patientWithFeverFound(msg.sender);\r\n    }\r\n  }\r\n\r\n  function getCAPThreshold() external view returns(uint){\r\n    return CAPThreshold[CAPs[msg.sender]];\r\n  }\r\n\r\n  function getCAPNumber() external view returns(uint){\r\n    return CAPs[msg.sender];\r\n  }\r\n  \r\n}\r\n",
  "sourcePath": "C:/Users/Marc/Documents/HACK/CAPClient/contracts/SimpleStorage.sol",
  "compiler": {
    "name": "solc",
    "version": "0.5.16+commit.9c3226ce.Emscripten.clang"
  },
  "schemaVersion": "3.0.22",
  "updatedAt": "2020-12-19T21:10:28.819Z",
  "networkType": "ethereum",
  "devdoc": {
    "methods": {}
  },
  "userdoc": {
    "methods": {}
  }
}