{
  "contractName": "SimpleStorage",
  "abi": [
    {
      "constant": false,
      "inputs": [],
      "name": "registerCAP",
      "outputs": [],
      "payable": false,
      "stateMutability": "nonpayable",
      "type": "function"
    },
    {
      "constant": false,
      "inputs": [
        {
          "internalType": "address",
          "name": "patientAddress",
          "type": "address"
        },
        {
          "internalType": "string",
          "name": "CIP",
          "type": "string"
        }
      ],
      "name": "registerPatient",
      "outputs": [],
      "payable": false,
      "stateMutability": "nonpayable",
      "type": "function"
    },
    {
      "constant": false,
      "inputs": [],
      "name": "getAllPatientsFromCAP",
      "outputs": [
        {
          "components": [
            {
              "internalType": "string",
              "name": "CIP",
              "type": "string"
            },
            {
              "internalType": "uint256",
              "name": "lastCheck",
              "type": "uint256"
            },
            {
              "internalType": "bool",
              "name": "hasCheckedIn",
              "type": "bool"
            },
            {
              "internalType": "uint256",
              "name": "CAP",
              "type": "uint256"
            },
            {
              "internalType": "bool",
              "name": "exists",
              "type": "bool"
            }
          ],
          "internalType": "struct SimpleStorage.patientData[]",
          "name": "",
          "type": "tuple[]"
        }
      ],
      "payable": false,
      "stateMutability": "nonpayable",
      "type": "function"
    }
  ],
  "bytecode": "0x6080604052600060055534801561001557600080fd5b50610df2806100256000396000f3fe608060405234801561001057600080fd5b50600436106100415760003560e01c80638048c2f0146100465780639d470d1e14610062578063f8fa61ef1461006c575b600080fd5b610060600480360361005b91908101906109d5565b61008a565b005b61006a610399565b005b6100746103ed565b6040516100819190610c66565b60405180910390f35b6100926107eb565b82828080601f016020809104026020016040519081016040528093929190818152602001838380828437600081840152601f19601f82011690508083019250505050505050816000018190525042816020018181525050600460003373ffffffffffffffffffffffffffffffffffffffff1673ffffffffffffffffffffffffffffffffffffffff168152602001908152602001600020548160600181815250506001816080019015159081151581525050806000808673ffffffffffffffffffffffffffffffffffffffff1673ffffffffffffffffffffffffffffffffffffffff168152602001908152602001600020600082015181600001908051906020019061019e92919061081e565b506020820151816001015560408201518160020160006101000a81548160ff0219169083151502179055506060820151816003015560808201518160040160006101000a81548160ff0219169083151502179055509050508360018484604051610209929190610c36565b908152602001604051809103902060006101000a81548173ffffffffffffffffffffffffffffffffffffffff021916908373ffffffffffffffffffffffffffffffffffffffff16021790555060026000600460003373ffffffffffffffffffffffffffffffffffffffff1673ffffffffffffffffffffffffffffffffffffffff1681526020019081526020016000205481526020019081526020016000208383909180600181540180825580915050906001820390600052602060002001600090919293909192939091929091925091906102e592919061089e565b5050600160036000600460003373ffffffffffffffffffffffffffffffffffffffff1673ffffffffffffffffffffffffffffffffffffffff168152602001908152602001600020548152602001908152602001600020540160036000600460003373ffffffffffffffffffffffffffffffffffffffff1673ffffffffffffffffffffffffffffffffffffffff1681526020019081526020016000205481526020019081526020016000208190555050505050565b600160055401600581905550600554600460003373ffffffffffffffffffffffffffffffffffffffff1673ffffffffffffffffffffffffffffffffffffffff16815260200190815260200160002081905550565b60608060036000600460003373ffffffffffffffffffffffffffffffffffffffff1673ffffffffffffffffffffffffffffffffffffffff1681526020019081526020016000205481526020019081526020016000205460405190808252806020026020018201604052801561047c57816020015b61046961091e565b8152602001906001900390816104615790505b50905060008090506000809050600091505b60036000600460003373ffffffffffffffffffffffffffffffffffffffff1673ffffffffffffffffffffffffffffffffffffffff168152602001908152602001600020548152602001908152602001600020548210156107e257600080600160026000600460003373ffffffffffffffffffffffffffffffffffffffff1673ffffffffffffffffffffffffffffffffffffffff168152602001908152602001600020548152602001908152602001600020858154811061054a57fe5b906000526020600020016040516105619190610c4f565b908152602001604051809103902060009054906101000a900473ffffffffffffffffffffffffffffffffffffffff1673ffffffffffffffffffffffffffffffffffffffff1673ffffffffffffffffffffffffffffffffffffffff16815260200190815260200160002060040160009054906101000a900460ff16156107d757600080600160026000600460003373ffffffffffffffffffffffffffffffffffffffff1673ffffffffffffffffffffffffffffffffffffffff168152602001908152602001600020548152602001908152602001600020858154811061064257fe5b906000526020600020016040516106599190610c4f565b908152602001604051809103902060009054906101000a900473ffffffffffffffffffffffffffffffffffffffff1673ffffffffffffffffffffffffffffffffffffffff1673ffffffffffffffffffffffffffffffffffffffff1681526020019081526020016000206040518060a0016040529081600082018054600181600116156101000203166002900480601f0160208091040260200160405190810160405280929190818152602001828054600181600116156101000203166002900480156107665780601f1061073b57610100808354040283529160200191610766565b820191906000526020600020905b81548152906001019060200180831161074957829003601f168201915b50505050508152602001600182015481526020016002820160009054906101000a900460ff16151515158152602001600382015481526020016004820160009054906101000a900460ff1615151515815250508382815181106107c557fe5b60200260200101819052508060010190505b81600101915061048e565b82935050505090565b6040518060a001604052806060815260200160008152602001600015158152602001600081526020016000151581525090565b828054600181600116156101000203166002900490600052602060002090601f016020900481019282601f1061085f57805160ff191683800117855561088d565b8280016001018555821561088d579182015b8281111561088c578251825591602001919060010190610871565b5b50905061089a9190610951565b5090565b828054600181600116156101000203166002900490600052602060002090601f016020900481019282601f106108df57803560ff191683800117855561090d565b8280016001018555821561090d579182015b8281111561090c5782358255916020019190600101906108f1565b5b50905061091a9190610951565b5090565b6040518060a001604052806060815260200160008152602001600015158152602001600081526020016000151581525090565b61097391905b8082111561096f576000816000905550600101610957565b5090565b90565b60008135905061098581610d98565b92915050565b60008083601f84011261099d57600080fd5b8235905067ffffffffffffffff8111156109b657600080fd5b6020830191508360018202830111156109ce57600080fd5b9250929050565b6000806000604084860312156109ea57600080fd5b60006109f886828701610976565b935050602084013567ffffffffffffffff811115610a1557600080fd5b610a218682870161098b565b92509250509250925092565b6000610a398383610bb1565b905092915050565b6000610a4c82610cad565b610a568185610cd0565b935083602082028501610a6885610c88565b8060005b85811015610aa45784840389528151610a858582610a2d565b9450610a9083610cc3565b925060208a01995050600181019050610a6c565b50829750879550505050505092915050565b610abf81610d0f565b82525050565b6000610ad18385610cf2565b9350610ade838584610d45565b82840190509392505050565b6000610af582610cb8565b610aff8185610ce1565b9350610b0f818560208601610d54565b610b1881610d87565b840191505092915050565b600081546001811660008114610b405760018114610b6557610ba9565b607f6002830416610b518187610cf2565b955060ff1983168652808601935050610ba9565b60028204610b738187610cf2565b9550610b7e85610c98565b60005b82811015610ba057815481890152600182019150602081019050610b81565b82880195505050505b505092915050565b600060a0830160008301518482036000860152610bce8282610aea565b9150506020830151610be36020860182610c27565b506040830151610bf66040860182610ab6565b506060830151610c096060860182610c27565b506080830151610c1c6080860182610ab6565b508091505092915050565b610c3081610d3b565b82525050565b6000610c43828486610ac5565b91508190509392505050565b6000610c5b8284610b23565b915081905092915050565b60006020820190508181036000830152610c808184610a41565b905092915050565b6000819050602082019050919050565b60008190508160005260206000209050919050565b600081519050919050565b600081519050919050565b6000602082019050919050565b600082825260208201905092915050565b600082825260208201905092915050565b600081905092915050565b6000610d0882610d1b565b9050919050565b60008115159050919050565b600073ffffffffffffffffffffffffffffffffffffffff82169050919050565b6000819050919050565b82818337600083830152505050565b60005b83811015610d72578082015181840152602081019050610d57565b83811115610d81576000848401525b50505050565b6000601f19601f8301169050919050565b610da181610cfd565b8114610dac57600080fd5b5056fea365627a7a72315820fdecb441bb86ed694fefb63ca01d602d957ce15dfdfeec7461c5b1c5dc8641746c6578706572696d656e74616cf564736f6c63430005100040",
  "source": "// SPDX-License-Identifier: MIT\r\npragma solidity >=0.4.21;\r\npragma experimental ABIEncoderV2;\r\n\r\ncontract SimpleStorage {\r\n  struct patientData{\r\n    string CIP;\r\n    uint lastCheck;\r\n    bool hasCheckedIn;\r\n    uint CAP;\r\n    bool exists;\r\n  }\r\n\r\n  mapping(address => patientData) patients;\r\n  mapping(string => address) addressFromCIP;\r\n  mapping(uint => string[]) patientsFromCAP;\r\n  mapping(uint => uint) activePatientsFromCAP;\r\n  mapping(address => uint) CAPs;\r\n\r\n  uint CAPnumber = 0;\r\n\r\n  function registerCAP() external {\r\n    CAPnumber = CAPnumber+1;\r\n    CAPs[msg.sender] = CAPnumber;\r\n  }\r\n\r\n  function registerPatient(address patientAddress, string calldata CIP) external{\r\n    patientData memory data;\r\n    data.CIP = CIP;\r\n    data.lastCheck = now;\r\n    data.CAP = CAPs[msg.sender];\r\n    data.exists = true;\r\n    patients[patientAddress] = data;\r\n    addressFromCIP[CIP] = patientAddress;\r\n    patientsFromCAP[CAPs[msg.sender]].push(CIP);\r\n    activePatientsFromCAP[CAPs[msg.sender]] = activePatientsFromCAP[CAPs[msg.sender]]+1;\r\n  }\r\n\r\n  function getAllPatientsFromCAP() external returns( patientData[] memory){\r\n    patientData[] memory ret = new patientData[](activePatientsFromCAP[CAPs[msg.sender]]);\r\n    uint i = 0;\r\n    uint retI = 0;\r\n    for(i=0; i<activePatientsFromCAP[CAPs[msg.sender]]; ++i){\r\n      if(patients[addressFromCIP[patientsFromCAP[CAPs[msg.sender]][i]]].exists){\r\n        ret[retI] = patients[addressFromCIP[patientsFromCAP[CAPs[msg.sender]][i]]];\r\n        ++retI;\r\n      }\r\n    }\r\n    return ret;\r\n  }\r\n\r\n  /*event test(address from, uint number);\r\n\r\n  function set(uint x) public {\r\n    storedData = x;\r\n    emit test(msg.sender, x);\r\n  }\r\n\r\n  function get() public view returns (uint) {\r\n    return storedData;\r\n  }*/\r\n}\r\n",
  "sourcePath": "C:/Users/Marc/Documents/HACK/CAPClient/contracts/SimpleStorage.sol",
  "compiler": {
    "name": "solc",
    "version": "0.5.16+commit.9c3226ce.Emscripten.clang"
  },
  "schemaVersion": "3.0.22",
  "updatedAt": "2020-12-19T16:01:52.992Z",
  "networkType": "ethereum",
  "devdoc": {
    "methods": {}
  },
  "userdoc": {
    "methods": {}
  }
}