{
  "contractName": "SimpleStorage",
  "abi": [
    {
      "anonymous": false,
      "inputs": [
        {
          "indexed": false,
          "internalType": "uint256",
          "name": "id",
          "type": "uint256"
        },
        {
          "indexed": false,
          "internalType": "address",
          "name": "",
          "type": "address"
        }
      ],
      "name": "CAPRegistered",
      "type": "event"
    },
    {
      "anonymous": false,
      "inputs": [
        {
          "indexed": false,
          "internalType": "string",
          "name": "CIP",
          "type": "string"
        },
        {
          "indexed": false,
          "internalType": "string",
          "name": "email",
          "type": "string"
        }
      ],
      "name": "patientRegistered",
      "type": "event"
    },
    {
      "anonymous": false,
      "inputs": [
        {
          "indexed": false,
          "internalType": "address",
          "name": "",
          "type": "address"
        }
      ],
      "name": "patientWithFeverFound",
      "type": "event"
    },
    {
      "anonymous": false,
      "inputs": [
        {
          "indexed": false,
          "internalType": "address",
          "name": "",
          "type": "address"
        }
      ],
      "name": "symptomsAdded",
      "type": "event"
    },
    {
      "constant": false,
      "inputs": [
        {
          "internalType": "uint256",
          "name": "threshold",
          "type": "uint256"
        }
      ],
      "name": "registerCAP",
      "outputs": [],
      "payable": false,
      "stateMutability": "nonpayable",
      "type": "function"
    },
    {
      "constant": false,
      "inputs": [
        {
          "internalType": "address",
          "name": "patientAddress",
          "type": "address"
        },
        {
          "internalType": "string",
          "name": "CIP",
          "type": "string"
        },
        {
          "internalType": "string",
          "name": "email",
          "type": "string"
        }
      ],
      "name": "registerPatient",
      "outputs": [],
      "payable": false,
      "stateMutability": "nonpayable",
      "type": "function"
    },
    {
      "constant": true,
      "inputs": [],
      "name": "getAllPatientsFromCAP",
      "outputs": [
        {
          "components": [
            {
              "internalType": "string",
              "name": "CIP",
              "type": "string"
            },
            {
              "internalType": "string",
              "name": "email",
              "type": "string"
            },
            {
              "internalType": "uint256",
              "name": "registerTime",
              "type": "uint256"
            },
            {
              "internalType": "uint256",
              "name": "lastCheck",
              "type": "uint256"
            },
            {
              "internalType": "bool",
              "name": "hasCheckedIn",
              "type": "bool"
            },
            {
              "internalType": "uint256",
              "name": "CAP",
              "type": "uint256"
            },
            {
              "internalType": "bool",
              "name": "exists",
              "type": "bool"
            }
          ],
          "internalType": "struct SimpleStorage.patientData[]",
          "name": "",
          "type": "tuple[]"
        }
      ],
      "payable": false,
      "stateMutability": "view",
      "type": "function"
    },
    {
      "constant": false,
      "inputs": [
        {
          "internalType": "uint256",
          "name": "fever",
          "type": "uint256"
        }
      ],
      "name": "addSymptoms",
      "outputs": [],
      "payable": false,
      "stateMutability": "nonpayable",
      "type": "function"
    },
    {
      "constant": true,
      "inputs": [],
      "name": "getCAPThreshold",
      "outputs": [
        {
          "internalType": "uint256",
          "name": "",
          "type": "uint256"
        }
      ],
      "payable": false,
      "stateMutability": "view",
      "type": "function"
    },
    {
      "constant": true,
      "inputs": [],
      "name": "getCAPNumber",
      "outputs": [
        {
          "internalType": "uint256",
          "name": "",
          "type": "uint256"
        }
      ],
      "payable": false,
      "stateMutability": "view",
      "type": "function"
    },
    {
      "constant": false,
      "inputs": [],
      "name": "patientExists",
      "outputs": [
        {
          "internalType": "bool",
          "name": "",
          "type": "bool"
        }
      ],
      "payable": false,
      "stateMutability": "nonpayable",
      "type": "function"
    }
  ],
  "bytecode": "0x6080604052600060075534801561001557600080fd5b5061157e806100256000396000f3fe608060405234801561001057600080fd5b506004361061007d5760003560e01c8063b58d13f91161005b578063b58d13f9146100d8578063cb8cc9bf146100f4578063f764d03a14610112578063f8fa61ef146101305761007d565b80631bc9f1b21461008257806337d917991461009e57806379559749146100ba575b600080fd5b61009c60048036036100979190810190610ff6565b61014e565b005b6100b860048036036100b39190810190610f6d565b6101f8565b005b6100c26105c5565b6040516100cf9190611372565b60405180910390f35b6100f260048036036100ed9190810190610ff6565b61060c565b005b6100fc6107ca565b604051610109919061131c565b60405180910390f35b61011a610832565b6040516101279190611372565b60405180910390f35b61013861088c565b60405161014591906112fa565b60405180910390f35b600160075401600781905550600754600560003373ffffffffffffffffffffffffffffffffffffffff1673ffffffffffffffffffffffffffffffffffffffff1681526020019081526020016000208190555080600660006007548152602001908152602001600020819055507fd34d244cb4718304cff84c9eba1ab1054711e9deb2202987cd3b372867a90ac3600754336040516101ed92919061138d565b60405180910390a150565b610200610d38565b84848080601f016020809104026020016040519081016040528093929190818152602001838380828437600081840152601f19601f82011690508083019250505050505050816000018190525082828080601f016020809104026020016040519081016040528093929190818152602001838380828437600081840152601f19601f8201169050808301925050505050505081602001819052504281604001818152505042816060018181525050600560003373ffffffffffffffffffffffffffffffffffffffff1673ffffffffffffffffffffffffffffffffffffffff168152602001908152602001600020548160a001818152505060018160c001901515908115158152505080600160008873ffffffffffffffffffffffffffffffffffffffff1673ffffffffffffffffffffffffffffffffffffffff1681526020019081526020016000206000820151816000019080519060200190610364929190610d79565b506020820151816001019080519060200190610381929190610d79565b50604082015181600201556060820151816003015560808201518160040160006101000a81548160ff02191690831515021790555060a0820151816005015560c08201518160060160006101000a81548160ff02191690831515021790555090505085600286866040516103f69291906112af565b908152602001604051809103902060006101000a81548173ffffffffffffffffffffffffffffffffffffffff021916908373ffffffffffffffffffffffffffffffffffffffff16021790555060036000600560003373ffffffffffffffffffffffffffffffffffffffff1673ffffffffffffffffffffffffffffffffffffffff1681526020019081526020016000205481526020019081526020016000208585909180600181540180825580915050906001820390600052602060002001600090919293909192939091929091925091906104d2929190610df9565b5050600160046000600560003373ffffffffffffffffffffffffffffffffffffffff1673ffffffffffffffffffffffffffffffffffffffff168152602001908152602001600020548152602001908152602001600020540160046000600560003373ffffffffffffffffffffffffffffffffffffffff1673ffffffffffffffffffffffffffffffffffffffff168152602001908152602001600020548152602001908152602001600020819055507f64bddcd718f7ebcfc6dbdfd2592731fea8f36b979c86ebce078d91c76797089c858585856040516105b59493929190611337565b60405180910390a1505050505050565b6000600560003373ffffffffffffffffffffffffffffffffffffffff1673ffffffffffffffffffffffffffffffffffffffff16815260200190815260200160002054905090565b610614610e79565b60405180604001604052804281526020018381525090506000803373ffffffffffffffffffffffffffffffffffffffff1673ffffffffffffffffffffffffffffffffffffffff1681526020019081526020016000208190806001815401808255809150509060018203906000526020600020906002020160009091929091909150600082015181600001556020820151816001015550505060018060003373ffffffffffffffffffffffffffffffffffffffff1673ffffffffffffffffffffffffffffffffffffffff16815260200190815260200160002060040160006101000a81548160ff02191690831515021790555042600160003373ffffffffffffffffffffffffffffffffffffffff1673ffffffffffffffffffffffffffffffffffffffff168152602001908152602001600020600301819055507fa49f6cdb7bee1202f270e77122ed51a8c7c97ba40eff357573110cca9fa1f4d73360405161077c91906112df565b60405180910390a1610e748211156107c6577f5d1f1e484d16831dc8d9353c824c8b1c8eea668312aeceaa3a4f6bcadf15bc75336040516107bd91906112df565b60405180910390a15b5050565b6000600160003373ffffffffffffffffffffffffffffffffffffffff1673ffffffffffffffffffffffffffffffffffffffff16815260200190815260200160002060060160009054906101000a900460ff161561082a576001905061082f565b600090505b90565b600060066000600560003373ffffffffffffffffffffffffffffffffffffffff1673ffffffffffffffffffffffffffffffffffffffff16815260200190815260200160002054815260200190815260200160002054905090565b60608060046000600560003373ffffffffffffffffffffffffffffffffffffffff1673ffffffffffffffffffffffffffffffffffffffff1681526020019081526020016000205481526020019081526020016000205460405190808252806020026020018201604052801561091b57816020015b610908610e93565b8152602001906001900390816109005790505b50905060008090506000809050600091505b60046000600560003373ffffffffffffffffffffffffffffffffffffffff1673ffffffffffffffffffffffffffffffffffffffff16815260200190815260200160002054815260200190815260200160002054821015610d2f5760016000600260036000600560003373ffffffffffffffffffffffffffffffffffffffff1673ffffffffffffffffffffffffffffffffffffffff16815260200190815260200160002054815260200190815260200160002085815481106109ea57fe5b90600052602060002001604051610a0191906112c8565b908152602001604051809103902060009054906101000a900473ffffffffffffffffffffffffffffffffffffffff1673ffffffffffffffffffffffffffffffffffffffff1673ffffffffffffffffffffffffffffffffffffffff16815260200190815260200160002060060160009054906101000a900460ff1615610d245760016000600260036000600560003373ffffffffffffffffffffffffffffffffffffffff1673ffffffffffffffffffffffffffffffffffffffff1681526020019081526020016000205481526020019081526020016000208581548110610ae357fe5b90600052602060002001604051610afa91906112c8565b908152602001604051809103902060009054906101000a900473ffffffffffffffffffffffffffffffffffffffff1673ffffffffffffffffffffffffffffffffffffffff1673ffffffffffffffffffffffffffffffffffffffff1681526020019081526020016000206040518060e0016040529081600082018054600181600116156101000203166002900480601f016020809104026020016040519081016040528092919081815260200182805460018160011615610100020316600290048015610c075780601f10610bdc57610100808354040283529160200191610c07565b820191906000526020600020905b815481529060010190602001808311610bea57829003601f168201915b50505050508152602001600182018054600181600116156101000203166002900480601f016020809104026020016040519081016040528092919081815260200182805460018160011615610100020316600290048015610ca95780601f10610c7e57610100808354040283529160200191610ca9565b820191906000526020600020905b815481529060010190602001808311610c8c57829003601f168201915b5050505050815260200160028201548152602001600382015481526020016004820160009054906101000a900460ff16151515158152602001600582015481526020016006820160009054906101000a900460ff161515151581525050838281518110610d1257fe5b60200260200101819052508060010190505b81600101915061092d565b82935050505090565b6040518060e0016040528060608152602001606081526020016000815260200160008152602001600015158152602001600081526020016000151581525090565b828054600181600116156101000203166002900490600052602060002090601f016020900481019282601f10610dba57805160ff1916838001178555610de8565b82800160010185558215610de8579182015b82811115610de7578251825591602001919060010190610dcc565b5b509050610df59190610ed4565b5090565b828054600181600116156101000203166002900490600052602060002090601f016020900481019282601f10610e3a57803560ff1916838001178555610e68565b82800160010185558215610e68579182015b82811115610e67578235825591602001919060010190610e4c565b5b509050610e759190610ed4565b5090565b604051806040016040528060008152602001600081525090565b6040518060e0016040528060608152602001606081526020016000815260200160008152602001600015158152602001600081526020016000151581525090565b610ef691905b80821115610ef2576000816000905550600101610eda565b5090565b90565b600081359050610f088161150d565b92915050565b60008083601f840112610f2057600080fd5b8235905067ffffffffffffffff811115610f3957600080fd5b602083019150836001820283011115610f5157600080fd5b9250929050565b600081359050610f6781611524565b92915050565b600080600080600060608688031215610f8557600080fd5b6000610f9388828901610ef9565b955050602086013567ffffffffffffffff811115610fb057600080fd5b610fbc88828901610f0e565b9450945050604086013567ffffffffffffffff811115610fdb57600080fd5b610fe788828901610f0e565b92509250509295509295909350565b60006020828403121561100857600080fd5b600061101684828501610f58565b91505092915050565b600061102b83836111ee565b905092915050565b61103c81611484565b82525050565b600061104d826113db565b61105781856113fe565b935083602082028501611069856113b6565b8060005b858110156110a55784840389528151611086858261101f565b9450611091836113f1565b925060208a0199505060018101905061106d565b50829750879550505050505092915050565b6110c08161144e565b82525050565b6110cf8161144e565b82525050565b60006110e18385611420565b93506110ee8385846114ba565b6110f7836114fc565b840190509392505050565b600061110e8385611431565b935061111b8385846114ba565b82840190509392505050565b6000611132826113e6565b61113c818561140f565b935061114c8185602086016114c9565b611155816114fc565b840191505092915050565b60008154600181166000811461117d57600181146111a2576111e6565b607f600283041661118e8187611431565b955060ff19831686528086019350506111e6565b600282046111b08187611431565b95506111bb856113c6565b60005b828110156111dd578154818901526001820191506020810190506111be565b82880195505050505b505092915050565b600060e083016000830151848203600086015261120b8282611127565b915050602083015184820360208601526112258282611127565b915050604083015161123a6040860182611291565b50606083015161124d6060860182611291565b50608083015161126060808601826110b7565b5060a083015161127360a0860182611291565b5060c083015161128660c08601826110b7565b508091505092915050565b61129a8161147a565b82525050565b6112a98161147a565b82525050565b60006112bc828486611102565b91508190509392505050565b60006112d48284611160565b915081905092915050565b60006020820190506112f46000830184611033565b92915050565b600060208201905081810360008301526113148184611042565b905092915050565b600060208201905061133160008301846110c6565b92915050565b600060408201905081810360008301526113528186886110d5565b905081810360208301526113678184866110d5565b905095945050505050565b600060208201905061138760008301846112a0565b92915050565b60006040820190506113a260008301856112a0565b6113af6020830184611033565b9392505050565b6000819050602082019050919050565b60008190508160005260206000209050919050565b600081519050919050565b600081519050919050565b6000602082019050919050565b600082825260208201905092915050565b600082825260208201905092915050565b600082825260208201905092915050565b600081905092915050565b60006114478261145a565b9050919050565b60008115159050919050565b600073ffffffffffffffffffffffffffffffffffffffff82169050919050565b6000819050919050565b600061148f82611496565b9050919050565b60006114a1826114a8565b9050919050565b60006114b38261145a565b9050919050565b82818337600083830152505050565b60005b838110156114e75780820151818401526020810190506114cc565b838111156114f6576000848401525b50505050565b6000601f19601f8301169050919050565b6115168161143c565b811461152157600080fd5b50565b61152d8161147a565b811461153857600080fd5b5056fea365627a7a72315820b3805083cd1a5ecb04b1f59da645c399c58baa6c5e37f5ccf14e9bc3b664e2dc6c6578706572696d656e74616cf564736f6c63430005100040",
  "source": "// SPDX-License-Identifier: MIT\r\npragma solidity >=0.5.0;\r\npragma experimental ABIEncoderV2;\r\n\r\ncontract SimpleStorage {\r\n\r\n  struct symptoms{\r\n    uint date;\r\n    uint fever;\r\n  }\r\n\r\n  struct patientData{\r\n    string CIP;\r\n    string email;\r\n    uint registerTime;\r\n    uint lastCheck;\r\n    bool hasCheckedIn;\r\n    uint CAP;\r\n    //symptoms[] symptomsArray;\r\n    bool exists;\r\n  }\r\n\r\n  mapping(address => symptoms[]) symptomsFromPatient;\r\n  mapping(address => patientData) patients;\r\n  mapping(string => address) addressFromCIP;\r\n  mapping(uint => string[]) patientsFromCAP;\r\n  mapping(uint => uint) activePatientsFromCAP;\r\n  mapping(address => uint) CAPs;\r\n  mapping(uint => uint) CAPThreshold;\r\n\r\n  uint CAPnumber = 0;\r\n\r\n  event patientRegistered(string CIP, string email);\r\n  event CAPRegistered(uint id, address);\r\n  event symptomsAdded(address);\r\n  event patientWithFeverFound(address);\r\n\r\n  function registerCAP(uint threshold) external {\r\n    CAPnumber = CAPnumber+1;\r\n    CAPs[msg.sender] = CAPnumber;\r\n    CAPThreshold[CAPnumber] = threshold;\r\n\r\n    emit CAPRegistered(CAPnumber, msg.sender);\r\n  }\r\n\r\n  function registerPatient(address patientAddress, string calldata CIP, string calldata email) external{\r\n    patientData memory data;\r\n    data.CIP = CIP;\r\n    data.email = email;\r\n    data.registerTime = now;\r\n    data.lastCheck = now;\r\n    data.CAP = CAPs[msg.sender];\r\n    data.exists = true;\r\n    patients[patientAddress] = data;\r\n    addressFromCIP[CIP] = patientAddress;\r\n    patientsFromCAP[CAPs[msg.sender]].push(CIP);\r\n    activePatientsFromCAP[CAPs[msg.sender]] = activePatientsFromCAP[CAPs[msg.sender]]+1;\r\n\r\n    emit patientRegistered(CIP,email);\r\n  }\r\n\r\n  function getAllPatientsFromCAP() external view returns( patientData[] memory){\r\n    patientData[] memory ret = new patientData[](activePatientsFromCAP[CAPs[msg.sender]]);\r\n    uint i = 0;\r\n    uint retI = 0;\r\n    for(i=0; i<activePatientsFromCAP[CAPs[msg.sender]]; ++i){\r\n      if(patients[addressFromCIP[patientsFromCAP[CAPs[msg.sender]][i]]].exists){\r\n        ret[retI] = patients[addressFromCIP[patientsFromCAP[CAPs[msg.sender]][i]]];\r\n        ++retI;\r\n      }\r\n    }\r\n    return ret;\r\n  }\r\n\r\n  function addSymptoms(uint fever) public {\r\n    symptoms memory data = symptoms({date: now, fever:fever});\r\n    symptomsFromPatient[msg.sender].push(data);\r\n    patients[msg.sender].hasCheckedIn = true;\r\n    patients[msg.sender].lastCheck = now;\r\n\r\n\r\n    emit symptomsAdded(msg.sender);\r\n    if(fever > 3700){\r\n      emit patientWithFeverFound(msg.sender);\r\n    }\r\n  }\r\n\r\n  function getCAPThreshold() external view returns(uint){\r\n    return CAPThreshold[CAPs[msg.sender]];\r\n  }\r\n\r\n  function getCAPNumber() external view returns(uint){\r\n    return CAPs[msg.sender];\r\n  }\r\n\r\n  function patientExists() external returns(bool){\r\n    if(patients[msg.sender].exists) return true;\r\n    return false;\r\n  }\r\n  \r\n}\r\n",
  "sourcePath": "G:/VID/hackaton/project/Wanikaniers/CAPClient/contracts/SimpleStorage.sol",
  "compiler": {
    "name": "solc",
    "version": "0.5.16+commit.9c3226ce.Emscripten.clang"
  },
  "schemaVersion": "3.0.22",
  "updatedAt": "2020-12-19T21:29:13.973Z",
  "networkType": "ethereum",
  "devdoc": {
    "methods": {}
  },
  "userdoc": {
    "methods": {}
  }
}