{
  "contractName": "SimpleStorage",
  "abi": [
    {
      "anonymous": false,
      "inputs": [
        {
          "indexed": false,
          "internalType": "uint256",
          "name": "id",
          "type": "uint256"
        },
        {
          "indexed": false,
          "internalType": "address",
          "name": "",
          "type": "address"
        }
      ],
      "name": "CAPRegistered",
      "type": "event"
    },
    {
      "anonymous": false,
      "inputs": [
        {
          "indexed": false,
          "internalType": "string",
          "name": "CIP",
          "type": "string"
        },
        {
          "indexed": false,
          "internalType": "string",
          "name": "email",
          "type": "string"
        }
      ],
      "name": "patientRegistered",
      "type": "event"
    },
    {
      "anonymous": false,
      "inputs": [
        {
          "indexed": false,
          "internalType": "address",
          "name": "",
          "type": "address"
        }
      ],
      "name": "patientWithFeverFound",
      "type": "event"
    },
    {
      "anonymous": false,
      "inputs": [
        {
          "indexed": false,
          "internalType": "address",
          "name": "",
          "type": "address"
        }
      ],
      "name": "symptomsAdded",
      "type": "event"
    },
    {
      "constant": false,
      "inputs": [
        {
          "internalType": "uint256",
          "name": "threshold",
          "type": "uint256"
        }
      ],
      "name": "registerCAP",
      "outputs": [],
      "payable": false,
      "stateMutability": "nonpayable",
      "type": "function"
    },
    {
      "constant": false,
      "inputs": [
        {
          "internalType": "address",
          "name": "patientAddress",
          "type": "address"
        },
        {
          "internalType": "string",
          "name": "CIP",
          "type": "string"
        },
        {
          "internalType": "string",
          "name": "email",
          "type": "string"
        }
      ],
      "name": "registerPatient",
      "outputs": [],
      "payable": false,
      "stateMutability": "nonpayable",
      "type": "function"
    },
    {
      "constant": true,
      "inputs": [],
      "name": "getAllPatientsFromCAP",
      "outputs": [
        {
          "components": [
            {
              "internalType": "string",
              "name": "CIP",
              "type": "string"
            },
            {
              "internalType": "string",
              "name": "email",
              "type": "string"
            },
            {
              "internalType": "uint256",
              "name": "registerTime",
              "type": "uint256"
            },
            {
              "internalType": "uint256",
              "name": "lastCheck",
              "type": "uint256"
            },
            {
              "internalType": "bool",
              "name": "hasCheckedIn",
              "type": "bool"
            },
            {
              "internalType": "uint256",
              "name": "CAP",
              "type": "uint256"
            },
            {
              "internalType": "bool",
              "name": "exists",
              "type": "bool"
            }
          ],
          "internalType": "struct SimpleStorage.patientData[]",
          "name": "",
          "type": "tuple[]"
        }
      ],
      "payable": false,
      "stateMutability": "view",
      "type": "function"
    },
    {
      "constant": false,
      "inputs": [
        {
          "internalType": "string",
          "name": "CIP",
          "type": "string"
        }
      ],
      "name": "getSymptomsfromCIP",
      "outputs": [
        {
          "components": [
            {
              "internalType": "uint256",
              "name": "date",
              "type": "uint256"
            },
            {
              "internalType": "uint256",
              "name": "fever",
              "type": "uint256"
            }
          ],
          "internalType": "struct SimpleStorage.symptoms[]",
          "name": "",
          "type": "tuple[]"
        }
      ],
      "payable": false,
      "stateMutability": "nonpayable",
      "type": "function"
    },
    {
      "constant": false,
      "inputs": [
        {
          "internalType": "string",
          "name": "CIP",
          "type": "string"
        }
      ],
      "name": "getPatientfromCIP",
      "outputs": [
        {
          "components": [
            {
              "internalType": "string",
              "name": "CIP",
              "type": "string"
            },
            {
              "internalType": "string",
              "name": "email",
              "type": "string"
            },
            {
              "internalType": "uint256",
              "name": "registerTime",
              "type": "uint256"
            },
            {
              "internalType": "uint256",
              "name": "lastCheck",
              "type": "uint256"
            },
            {
              "internalType": "bool",
              "name": "hasCheckedIn",
              "type": "bool"
            },
            {
              "internalType": "uint256",
              "name": "CAP",
              "type": "uint256"
            },
            {
              "internalType": "bool",
              "name": "exists",
              "type": "bool"
            }
          ],
          "internalType": "struct SimpleStorage.patientData",
          "name": "",
          "type": "tuple"
        }
      ],
      "payable": false,
      "stateMutability": "nonpayable",
      "type": "function"
    },
    {
      "constant": false,
      "inputs": [
        {
          "internalType": "string",
          "name": "CIP",
          "type": "string"
        }
      ],
      "name": "searchPatientSymptoms",
      "outputs": [],
      "payable": false,
      "stateMutability": "nonpayable",
      "type": "function"
    },
    {
      "constant": false,
      "inputs": [
        {
          "internalType": "uint256",
          "name": "fever",
          "type": "uint256"
        }
      ],
      "name": "addSymptoms",
      "outputs": [],
      "payable": false,
      "stateMutability": "nonpayable",
      "type": "function"
    },
    {
      "constant": true,
      "inputs": [],
      "name": "getCAPThreshold",
      "outputs": [
        {
          "internalType": "uint256",
          "name": "",
          "type": "uint256"
        }
      ],
      "payable": false,
      "stateMutability": "view",
      "type": "function"
    },
    {
      "constant": true,
      "inputs": [],
      "name": "getCAPNumber",
      "outputs": [
        {
          "internalType": "uint256",
          "name": "",
          "type": "uint256"
        }
      ],
      "payable": false,
      "stateMutability": "view",
      "type": "function"
    },
    {
      "constant": false,
      "inputs": [],
      "name": "patientExists",
      "outputs": [
        {
          "internalType": "bool",
          "name": "",
          "type": "bool"
        }
      ],
      "payable": false,
      "stateMutability": "nonpayable",
      "type": "function"
    }
  ],
  "bytecode": "0x6080604052600060075534801561001557600080fd5b50611b59806100256000396000f3fe608060405234801561001057600080fd5b506004361061009e5760003560e01c8063be42b4f511610066578063be42b4f514610131578063cb8cc9bf14610161578063cef22e3e1461017f578063f764d03a146101af578063f8fa61ef146101cd5761009e565b80631bc9f1b2146100a357806337d91799146100bf57806345c06b41146100db57806379559749146100f7578063b58d13f914610115575b600080fd5b6100bd60048036036100b8919081019061140c565b6101eb565b005b6100d960048036036100d4919081019061133e565b610295565b005b6100f560048036036100f091908101906113c7565b610662565b005b6100ff610666565b60405161010c9190611914565b60405180910390f35b61012f600480360361012a919081019061140c565b6106ad565b005b61014b600480360361014691908101906113c7565b61086b565b604051610158919061187a565b60405180910390f35b610169610963565b604051610176919061189c565b60405180910390f35b610199600480360361019491908101906113c7565b6109cb565b6040516101a691906118f2565b60405180910390f35b6101b7610c03565b6040516101c49190611914565b60405180910390f35b6101d5610c5d565b6040516101e29190611858565b60405180910390f35b600160075401600781905550600754600560003373ffffffffffffffffffffffffffffffffffffffff1673ffffffffffffffffffffffffffffffffffffffff1681526020019081526020016000208190555080600660006007548152602001908152602001600020819055507fd34d244cb4718304cff84c9eba1ab1054711e9deb2202987cd3b372867a90ac36007543360405161028a92919061192f565b60405180910390a150565b61029d611109565b84848080601f016020809104026020016040519081016040528093929190818152602001838380828437600081840152601f19601f82011690508083019250505050505050816000018190525082828080601f016020809104026020016040519081016040528093929190818152602001838380828437600081840152601f19601f8201169050808301925050505050505081602001819052504281604001818152505042816060018181525050600560003373ffffffffffffffffffffffffffffffffffffffff1673ffffffffffffffffffffffffffffffffffffffff168152602001908152602001600020548160a001818152505060018160c001901515908115158152505080600160008873ffffffffffffffffffffffffffffffffffffffff1673ffffffffffffffffffffffffffffffffffffffff168152602001908152602001600020600082015181600001908051906020019061040192919061114a565b50602082015181600101908051906020019061041e92919061114a565b50604082015181600201556060820151816003015560808201518160040160006101000a81548160ff02191690831515021790555060a0820151816005015560c08201518160060160006101000a81548160ff021916908315150217905550905050856002868660405161049392919061180d565b908152602001604051809103902060006101000a81548173ffffffffffffffffffffffffffffffffffffffff021916908373ffffffffffffffffffffffffffffffffffffffff16021790555060036000600560003373ffffffffffffffffffffffffffffffffffffffff1673ffffffffffffffffffffffffffffffffffffffff16815260200190815260200160002054815260200190815260200160002085859091806001815401808255809150509060018203906000526020600020016000909192939091929390919290919250919061056f9291906111ca565b5050600160046000600560003373ffffffffffffffffffffffffffffffffffffffff1673ffffffffffffffffffffffffffffffffffffffff168152602001908152602001600020548152602001908152602001600020540160046000600560003373ffffffffffffffffffffffffffffffffffffffff1673ffffffffffffffffffffffffffffffffffffffff168152602001908152602001600020548152602001908152602001600020819055507f64bddcd718f7ebcfc6dbdfd2592731fea8f36b979c86ebce078d91c76797089c8585858560405161065294939291906118b7565b60405180910390a1505050505050565b5050565b6000600560003373ffffffffffffffffffffffffffffffffffffffff1673ffffffffffffffffffffffffffffffffffffffff16815260200190815260200160002054905090565b6106b561124a565b60405180604001604052804281526020018381525090506000803373ffffffffffffffffffffffffffffffffffffffff1673ffffffffffffffffffffffffffffffffffffffff1681526020019081526020016000208190806001815401808255809150509060018203906000526020600020906002020160009091929091909150600082015181600001556020820151816001015550505060018060003373ffffffffffffffffffffffffffffffffffffffff1673ffffffffffffffffffffffffffffffffffffffff16815260200190815260200160002060040160006101000a81548160ff02191690831515021790555042600160003373ffffffffffffffffffffffffffffffffffffffff1673ffffffffffffffffffffffffffffffffffffffff168152602001908152602001600020600301819055507fa49f6cdb7bee1202f270e77122ed51a8c7c97ba40eff357573110cca9fa1f4d73360405161081d919061183d565b60405180910390a1610e74821115610867577f5d1f1e484d16831dc8d9353c824c8b1c8eea668312aeceaa3a4f6bcadf15bc753360405161085e919061183d565b60405180910390a15b5050565b606060006002848460405161088192919061180d565b908152602001604051809103902060009054906101000a900473ffffffffffffffffffffffffffffffffffffffff1690506000808273ffffffffffffffffffffffffffffffffffffffff1673ffffffffffffffffffffffffffffffffffffffff168152602001908152602001600020805480602002602001604051908101604052809291908181526020016000905b8282101561095657838290600052602060002090600202016040518060400160405290816000820154815260200160018201548152505081526020019060010190610910565b5050505091505092915050565b6000600160003373ffffffffffffffffffffffffffffffffffffffff1673ffffffffffffffffffffffffffffffffffffffff16815260200190815260200160002060060160009054906101000a900460ff16156109c357600190506109c8565b600090505b90565b6109d3611109565b6000600284846040516109e792919061180d565b908152602001604051809103902060009054906101000a900473ffffffffffffffffffffffffffffffffffffffff169050600160008273ffffffffffffffffffffffffffffffffffffffff1673ffffffffffffffffffffffffffffffffffffffff1681526020019081526020016000206040518060e0016040529081600082018054600181600116156101000203166002900480601f016020809104026020016040519081016040528092919081815260200182805460018160011615610100020316600290048015610afb5780601f10610ad057610100808354040283529160200191610afb565b820191906000526020600020905b815481529060010190602001808311610ade57829003601f168201915b50505050508152602001600182018054600181600116156101000203166002900480601f016020809104026020016040519081016040528092919081815260200182805460018160011615610100020316600290048015610b9d5780601f10610b7257610100808354040283529160200191610b9d565b820191906000526020600020905b815481529060010190602001808311610b8057829003601f168201915b5050505050815260200160028201548152602001600382015481526020016004820160009054906101000a900460ff16151515158152602001600582015481526020016006820160009054906101000a900460ff16151515158152505091505092915050565b600060066000600560003373ffffffffffffffffffffffffffffffffffffffff1673ffffffffffffffffffffffffffffffffffffffff16815260200190815260200160002054815260200190815260200160002054905090565b60608060046000600560003373ffffffffffffffffffffffffffffffffffffffff1673ffffffffffffffffffffffffffffffffffffffff16815260200190815260200160002054815260200190815260200160002054604051908082528060200260200182016040528015610cec57816020015b610cd9611264565b815260200190600190039081610cd15790505b50905060008090506000809050600091505b60046000600560003373ffffffffffffffffffffffffffffffffffffffff1673ffffffffffffffffffffffffffffffffffffffff168152602001908152602001600020548152602001908152602001600020548210156111005760016000600260036000600560003373ffffffffffffffffffffffffffffffffffffffff1673ffffffffffffffffffffffffffffffffffffffff1681526020019081526020016000205481526020019081526020016000208581548110610dbb57fe5b90600052602060002001604051610dd29190611826565b908152602001604051809103902060009054906101000a900473ffffffffffffffffffffffffffffffffffffffff1673ffffffffffffffffffffffffffffffffffffffff1673ffffffffffffffffffffffffffffffffffffffff16815260200190815260200160002060060160009054906101000a900460ff16156110f55760016000600260036000600560003373ffffffffffffffffffffffffffffffffffffffff1673ffffffffffffffffffffffffffffffffffffffff1681526020019081526020016000205481526020019081526020016000208581548110610eb457fe5b90600052602060002001604051610ecb9190611826565b908152602001604051809103902060009054906101000a900473ffffffffffffffffffffffffffffffffffffffff1673ffffffffffffffffffffffffffffffffffffffff1673ffffffffffffffffffffffffffffffffffffffff1681526020019081526020016000206040518060e0016040529081600082018054600181600116156101000203166002900480601f016020809104026020016040519081016040528092919081815260200182805460018160011615610100020316600290048015610fd85780601f10610fad57610100808354040283529160200191610fd8565b820191906000526020600020905b815481529060010190602001808311610fbb57829003601f168201915b50505050508152602001600182018054600181600116156101000203166002900480601f01602080910402602001604051908101604052809291908181526020018280546001816001161561010002031660029004801561107a5780601f1061104f5761010080835404028352916020019161107a565b820191906000526020600020905b81548152906001019060200180831161105d57829003601f168201915b5050505050815260200160028201548152602001600382015481526020016004820160009054906101000a900460ff16151515158152602001600582015481526020016006820160009054906101000a900460ff1615151515815250508382815181106110e357fe5b60200260200101819052508060010190505b816001019150610cfe565b82935050505090565b6040518060e0016040528060608152602001606081526020016000815260200160008152602001600015158152602001600081526020016000151581525090565b828054600181600116156101000203166002900490600052602060002090601f016020900481019282601f1061118b57805160ff19168380011785556111b9565b828001600101855582156111b9579182015b828111156111b857825182559160200191906001019061119d565b5b5090506111c691906112a5565b5090565b828054600181600116156101000203166002900490600052602060002090601f016020900481019282601f1061120b57803560ff1916838001178555611239565b82800160010185558215611239579182015b8281111561123857823582559160200191906001019061121d565b5b50905061124691906112a5565b5090565b604051806040016040528060008152602001600081525090565b6040518060e0016040528060608152602001606081526020016000815260200160008152602001600015158152602001600081526020016000151581525090565b6112c791905b808211156112c35760008160009055506001016112ab565b5090565b90565b6000813590506112d981611ae8565b92915050565b60008083601f8401126112f157600080fd5b8235905067ffffffffffffffff81111561130a57600080fd5b60208301915083600182028301111561132257600080fd5b9250929050565b60008135905061133881611aff565b92915050565b60008060008060006060868803121561135657600080fd5b6000611364888289016112ca565b955050602086013567ffffffffffffffff81111561138157600080fd5b61138d888289016112df565b9450945050604086013567ffffffffffffffff8111156113ac57600080fd5b6113b8888289016112df565b92509250509295509295909350565b600080602083850312156113da57600080fd5b600083013567ffffffffffffffff8111156113f457600080fd5b611400858286016112df565b92509250509250929050565b60006020828403121561141e57600080fd5b600061142c84828501611329565b91505092915050565b6000611441838361171d565b905092915050565b600061145583836117c0565b60408301905092915050565b61146a81611a5f565b82525050565b600061147b8261198d565b61148581856119c8565b93508360208202850161149785611958565b8060005b858110156114d357848403895281516114b48582611435565b94506114bf836119ae565b925060208a0199505060018101905061149b565b50829750879550505050505092915050565b60006114f082611998565b6114fa81856119d9565b935061150583611968565b8060005b8381101561153657815161151d8882611449565b9750611528836119bb565b925050600181019050611509565b5085935050505092915050565b61154c81611a29565b82525050565b61155b81611a29565b82525050565b600061156d83856119fb565b935061157a838584611a95565b61158383611ad7565b840190509392505050565b600061159a8385611a0c565b93506115a7838584611a95565b82840190509392505050565b60006115be826119a3565b6115c881856119ea565b93506115d8818560208601611aa4565b6115e181611ad7565b840191505092915050565b600081546001811660008114611609576001811461162e57611672565b607f600283041661161a8187611a0c565b955060ff1983168652808601935050611672565b6002820461163c8187611a0c565b955061164785611978565b60005b828110156116695781548189015260018201915060208101905061164a565b82880195505050505b505092915050565b600060e083016000830151848203600086015261169782826115b3565b915050602083015184820360208601526116b182826115b3565b91505060408301516116c660408601826117ef565b5060608301516116d960608601826117ef565b5060808301516116ec6080860182611543565b5060a08301516116ff60a08601826117ef565b5060c083015161171260c0860182611543565b508091505092915050565b600060e083016000830151848203600086015261173a82826115b3565b9150506020830151848203602086015261175482826115b3565b915050604083015161176960408601826117ef565b50606083015161177c60608601826117ef565b50608083015161178f6080860182611543565b5060a08301516117a260a08601826117ef565b5060c08301516117b560c0860182611543565b508091505092915050565b6040820160008201516117d660008501826117ef565b5060208201516117e960208501826117ef565b50505050565b6117f881611a55565b82525050565b61180781611a55565b82525050565b600061181a82848661158e565b91508190509392505050565b600061183282846115ec565b915081905092915050565b60006020820190506118526000830184611461565b92915050565b600060208201905081810360008301526118728184611470565b905092915050565b6000602082019050818103600083015261189481846114e5565b905092915050565b60006020820190506118b16000830184611552565b92915050565b600060408201905081810360008301526118d2818688611561565b905081810360208301526118e7818486611561565b905095945050505050565b6000602082019050818103600083015261190c818461167a565b905092915050565b600060208201905061192960008301846117fe565b92915050565b600060408201905061194460008301856117fe565b6119516020830184611461565b9392505050565b6000819050602082019050919050565b6000819050602082019050919050565b60008190508160005260206000209050919050565b600081519050919050565b600081519050919050565b600081519050919050565b6000602082019050919050565b6000602082019050919050565b600082825260208201905092915050565b600082825260208201905092915050565b600082825260208201905092915050565b600082825260208201905092915050565b600081905092915050565b6000611a2282611a35565b9050919050565b60008115159050919050565b600073ffffffffffffffffffffffffffffffffffffffff82169050919050565b6000819050919050565b6000611a6a82611a71565b9050919050565b6000611a7c82611a83565b9050919050565b6000611a8e82611a35565b9050919050565b82818337600083830152505050565b60005b83811015611ac2578082015181840152602081019050611aa7565b83811115611ad1576000848401525b50505050565b6000601f19601f8301169050919050565b611af181611a17565b8114611afc57600080fd5b50565b611b0881611a55565b8114611b1357600080fd5b5056fea365627a7a7231582030c30dd2f460c7234634e9587c14678bbd248a779d11803e761e51de3965f8966c6578706572696d656e74616cf564736f6c63430005100040",
  "source": "// SPDX-License-Identifier: MIT\r\npragma solidity >=0.5.0;\r\npragma experimental ABIEncoderV2;\r\n\r\ncontract SimpleStorage {\r\n\r\n  struct symptoms{\r\n    uint date;\r\n    uint fever;\r\n  }\r\n\r\n  struct patientData{\r\n    string CIP;\r\n    string email;\r\n    uint registerTime;\r\n    uint lastCheck;\r\n    bool hasCheckedIn;\r\n    uint CAP;\r\n    //symptoms[] symptomsArray;\r\n    bool exists;\r\n  }\r\n\r\n  mapping(address => symptoms[]) symptomsFromPatient;\r\n  mapping(address => patientData) patients;\r\n  mapping(string => address) addressFromCIP;\r\n  mapping(uint => string[]) patientsFromCAP;\r\n  mapping(uint => uint) activePatientsFromCAP;\r\n  mapping(address => uint) CAPs;\r\n  mapping(uint => uint) CAPThreshold;\r\n\r\n  uint CAPnumber = 0;\r\n\r\n  event patientRegistered(string CIP, string email);\r\n  event CAPRegistered(uint id, address);\r\n  event symptomsAdded(address);\r\n  event patientWithFeverFound(address);\r\n\r\n  function registerCAP(uint threshold) external {\r\n    CAPnumber = CAPnumber+1;\r\n    CAPs[msg.sender] = CAPnumber;\r\n    CAPThreshold[CAPnumber] = threshold;\r\n\r\n    emit CAPRegistered(CAPnumber, msg.sender);\r\n  }\r\n\r\n  function registerPatient(address patientAddress, string calldata CIP, string calldata email) external{\r\n    patientData memory data;\r\n    data.CIP = CIP;\r\n    data.email = email;\r\n    data.registerTime = now;\r\n    data.lastCheck = now;\r\n    data.CAP = CAPs[msg.sender];\r\n    data.exists = true;\r\n    patients[patientAddress] = data;\r\n    addressFromCIP[CIP] = patientAddress;\r\n    patientsFromCAP[CAPs[msg.sender]].push(CIP);\r\n    activePatientsFromCAP[CAPs[msg.sender]] = activePatientsFromCAP[CAPs[msg.sender]]+1;\r\n\r\n    emit patientRegistered(CIP,email);\r\n  }\r\n\r\n  function getAllPatientsFromCAP() external view returns( patientData[] memory){\r\n    patientData[] memory ret = new patientData[](activePatientsFromCAP[CAPs[msg.sender]]);\r\n    uint i = 0;\r\n    uint retI = 0;\r\n    for(i=0; i<activePatientsFromCAP[CAPs[msg.sender]]; ++i){\r\n      if(patients[addressFromCIP[patientsFromCAP[CAPs[msg.sender]][i]]].exists){\r\n        ret[retI] = patients[addressFromCIP[patientsFromCAP[CAPs[msg.sender]][i]]];\r\n        ++retI;\r\n      }\r\n    }\r\n    return ret;\r\n  }\r\n\r\n  function getSymptomsfromCIP(string calldata CIP) external returns(symptoms[] memory){\r\n    address patient = addressFromCIP[CIP];\r\n    return symptomsFromPatient[patient];\r\n  }\r\n\r\n  function getPatientfromCIP(string calldata CIP) external returns(patientData memory){\r\n    address patient = addressFromCIP[CIP];\r\n    return patients[patient];\r\n  }\r\n\r\n  function searchPatientSymptoms(string calldata CIP) external {\r\n    //symptomsFromPatient[address];\r\n  }\r\n\r\n  function addSymptoms(uint fever) public {\r\n    symptoms memory data = symptoms({date: now, fever:fever});\r\n    symptomsFromPatient[msg.sender].push(data);\r\n    patients[msg.sender].hasCheckedIn = true;\r\n    patients[msg.sender].lastCheck = now;\r\n\r\n\r\n    emit symptomsAdded(msg.sender);\r\n    if(fever > 3700){\r\n      emit patientWithFeverFound(msg.sender);\r\n    }\r\n  }\r\n\r\n  function getCAPThreshold() external view returns(uint){\r\n    return CAPThreshold[CAPs[msg.sender]];\r\n  }\r\n\r\n  function getCAPNumber() external view returns(uint){\r\n    return CAPs[msg.sender];\r\n  }\r\n\r\n  function patientExists() external returns(bool){\r\n    if(patients[msg.sender].exists) return true;\r\n    return false;\r\n  }\r\n  \r\n}\r\n",
  "sourcePath": "G:/VID/hackaton/project/Wanikaniers/CAPClient/contracts/SimpleStorage.sol",
  "compiler": {
    "name": "solc",
    "version": "0.5.16+commit.9c3226ce.Emscripten.clang"
  },
  "schemaVersion": "3.0.22",
  "updatedAt": "2020-12-19T22:02:12.208Z",
  "networkType": "ethereum",
  "devdoc": {
    "methods": {}
  },
  "userdoc": {
    "methods": {}
  }
}