{
  "contractName": "SimpleStorage",
  "abi": [
    {
      "anonymous": false,
      "inputs": [
        {
          "indexed": false,
          "internalType": "uint256",
          "name": "id",
          "type": "uint256"
        },
        {
          "indexed": false,
          "internalType": "address",
          "name": "",
          "type": "address"
        }
      ],
      "name": "CAPRegistered",
      "type": "event"
    },
    {
      "anonymous": false,
      "inputs": [
        {
          "indexed": false,
          "internalType": "string",
          "name": "CIP",
          "type": "string"
        },
        {
          "indexed": false,
          "internalType": "string",
          "name": "email",
          "type": "string"
        }
      ],
      "name": "patientRegistered",
      "type": "event"
    },
    {
      "anonymous": false,
      "inputs": [
        {
          "components": [
            {
              "internalType": "string",
              "name": "CIP",
              "type": "string"
            },
            {
              "internalType": "string",
              "name": "email",
              "type": "string"
            },
            {
              "internalType": "uint256",
              "name": "registerTime",
              "type": "uint256"
            },
            {
              "internalType": "uint256",
              "name": "lastCheck",
              "type": "uint256"
            },
            {
              "internalType": "bool",
              "name": "hasCheckedIn",
              "type": "bool"
            },
            {
              "internalType": "uint256",
              "name": "CAP",
              "type": "uint256"
            },
            {
              "internalType": "bool",
              "name": "exists",
              "type": "bool"
            }
          ],
          "indexed": false,
          "internalType": "struct SimpleStorage.patientData",
          "name": "",
          "type": "tuple"
        }
      ],
      "name": "patientWithFeverFound",
      "type": "event"
    },
    {
      "anonymous": false,
      "inputs": [
        {
          "indexed": false,
          "internalType": "address",
          "name": "",
          "type": "address"
        }
      ],
      "name": "symptomsAdded",
      "type": "event"
    },
    {
      "constant": false,
      "inputs": [
        {
          "internalType": "uint256",
          "name": "threshold",
          "type": "uint256"
        }
      ],
      "name": "registerCAP",
      "outputs": [],
      "payable": false,
      "stateMutability": "nonpayable",
      "type": "function"
    },
    {
      "constant": false,
      "inputs": [
        {
          "internalType": "address",
          "name": "patientAddress",
          "type": "address"
        },
        {
          "internalType": "string",
          "name": "CIP",
          "type": "string"
        },
        {
          "internalType": "string",
          "name": "email",
          "type": "string"
        }
      ],
      "name": "registerPatient",
      "outputs": [],
      "payable": false,
      "stateMutability": "nonpayable",
      "type": "function"
    },
    {
      "constant": true,
      "inputs": [],
      "name": "getAllPatientsFromCAP",
      "outputs": [
        {
          "components": [
            {
              "internalType": "string",
              "name": "CIP",
              "type": "string"
            },
            {
              "internalType": "string",
              "name": "email",
              "type": "string"
            },
            {
              "internalType": "uint256",
              "name": "registerTime",
              "type": "uint256"
            },
            {
              "internalType": "uint256",
              "name": "lastCheck",
              "type": "uint256"
            },
            {
              "internalType": "bool",
              "name": "hasCheckedIn",
              "type": "bool"
            },
            {
              "internalType": "uint256",
              "name": "CAP",
              "type": "uint256"
            },
            {
              "internalType": "bool",
              "name": "exists",
              "type": "bool"
            }
          ],
          "internalType": "struct SimpleStorage.patientData[]",
          "name": "",
          "type": "tuple[]"
        }
      ],
      "payable": false,
      "stateMutability": "view",
      "type": "function"
    },
    {
      "constant": false,
      "inputs": [
        {
          "internalType": "string",
          "name": "CIP",
          "type": "string"
        }
      ],
      "name": "getSymptomsfromCIP",
      "outputs": [
        {
          "components": [
            {
              "internalType": "uint256",
              "name": "date",
              "type": "uint256"
            },
            {
              "internalType": "uint256",
              "name": "fever",
              "type": "uint256"
            }
          ],
          "internalType": "struct SimpleStorage.symptoms[]",
          "name": "",
          "type": "tuple[]"
        }
      ],
      "payable": false,
      "stateMutability": "nonpayable",
      "type": "function"
    },
    {
      "constant": false,
      "inputs": [
        {
          "internalType": "string",
          "name": "CIP",
          "type": "string"
        }
      ],
      "name": "getPatientfromCIP",
      "outputs": [
        {
          "components": [
            {
              "internalType": "string",
              "name": "CIP",
              "type": "string"
            },
            {
              "internalType": "string",
              "name": "email",
              "type": "string"
            },
            {
              "internalType": "uint256",
              "name": "registerTime",
              "type": "uint256"
            },
            {
              "internalType": "uint256",
              "name": "lastCheck",
              "type": "uint256"
            },
            {
              "internalType": "bool",
              "name": "hasCheckedIn",
              "type": "bool"
            },
            {
              "internalType": "uint256",
              "name": "CAP",
              "type": "uint256"
            },
            {
              "internalType": "bool",
              "name": "exists",
              "type": "bool"
            }
          ],
          "internalType": "struct SimpleStorage.patientData",
          "name": "",
          "type": "tuple"
        }
      ],
      "payable": false,
      "stateMutability": "nonpayable",
      "type": "function"
    },
    {
      "constant": false,
      "inputs": [
        {
          "internalType": "string",
          "name": "CIP",
          "type": "string"
        }
      ],
      "name": "searchPatientSymptoms",
      "outputs": [],
      "payable": false,
      "stateMutability": "nonpayable",
      "type": "function"
    },
    {
      "constant": false,
      "inputs": [
        {
          "internalType": "uint256",
          "name": "fever",
          "type": "uint256"
        }
      ],
      "name": "addSymptoms",
      "outputs": [],
      "payable": false,
      "stateMutability": "nonpayable",
      "type": "function"
    },
    {
      "constant": true,
      "inputs": [],
      "name": "getCAPThreshold",
      "outputs": [
        {
          "internalType": "uint256",
          "name": "",
          "type": "uint256"
        }
      ],
      "payable": false,
      "stateMutability": "view",
      "type": "function"
    },
    {
      "constant": true,
      "inputs": [],
      "name": "getCAPNumber",
      "outputs": [
        {
          "internalType": "uint256",
          "name": "",
          "type": "uint256"
        }
      ],
      "payable": false,
      "stateMutability": "view",
      "type": "function"
    },
    {
      "constant": false,
      "inputs": [],
      "name": "patientExists",
      "outputs": [
        {
          "internalType": "bool",
          "name": "",
          "type": "bool"
        }
      ],
      "payable": false,
      "stateMutability": "nonpayable",
      "type": "function"
    }
  ],
  "bytecode": "0x6080604052600060075534801561001557600080fd5b50611d7a806100256000396000f3fe608060405234801561001057600080fd5b506004361061009e5760003560e01c8063be42b4f511610066578063be42b4f514610131578063cb8cc9bf14610161578063cef22e3e1461017f578063f764d03a146101af578063f8fa61ef146101cd5761009e565b80631bc9f1b2146100a357806337d91799146100bf57806345c06b41146100db57806379559749146100f7578063b58d13f914610115575b600080fd5b6100bd60048036036100b8919081019061144a565b6101eb565b005b6100d960048036036100d4919081019061137c565b610295565b005b6100f560048036036100f09190810190611405565b610662565b005b6100ff610666565b60405161010c9190611add565b60405180910390f35b61012f600480360361012a919081019061144a565b6106ad565b005b61014b60048036036101469190810190611405565b6108a9565b6040516101589190611a21565b60405180910390f35b6101696109a1565b6040516101769190611a43565b60405180910390f35b61019960048036036101949190810190611405565b610a09565b6040516101a69190611a99565b60405180910390f35b6101b7610c41565b6040516101c49190611add565b60405180910390f35b6101d5610c9b565b6040516101e291906119ff565b60405180910390f35b600160075401600781905550600754600560003373ffffffffffffffffffffffffffffffffffffffff1673ffffffffffffffffffffffffffffffffffffffff1681526020019081526020016000208190555080600660006007548152602001908152602001600020819055507fd34d244cb4718304cff84c9eba1ab1054711e9deb2202987cd3b372867a90ac36007543360405161028a929190611af8565b60405180910390a150565b61029d611147565b84848080601f016020809104026020016040519081016040528093929190818152602001838380828437600081840152601f19601f82011690508083019250505050505050816000018190525082828080601f016020809104026020016040519081016040528093929190818152602001838380828437600081840152601f19601f8201169050808301925050505050505081602001819052504281604001818152505042816060018181525050600560003373ffffffffffffffffffffffffffffffffffffffff1673ffffffffffffffffffffffffffffffffffffffff168152602001908152602001600020548160a001818152505060018160c001901515908115158152505080600160008873ffffffffffffffffffffffffffffffffffffffff1673ffffffffffffffffffffffffffffffffffffffff1681526020019081526020016000206000820151816000019080519060200190610401929190611188565b50602082015181600101908051906020019061041e929190611188565b50604082015181600201556060820151816003015560808201518160040160006101000a81548160ff02191690831515021790555060a0820151816005015560c08201518160060160006101000a81548160ff02191690831515021790555090505085600286866040516104939291906119b4565b908152602001604051809103902060006101000a81548173ffffffffffffffffffffffffffffffffffffffff021916908373ffffffffffffffffffffffffffffffffffffffff16021790555060036000600560003373ffffffffffffffffffffffffffffffffffffffff1673ffffffffffffffffffffffffffffffffffffffff16815260200190815260200160002054815260200190815260200160002085859091806001815401808255809150509060018203906000526020600020016000909192939091929390919290919250919061056f929190611208565b5050600160046000600560003373ffffffffffffffffffffffffffffffffffffffff1673ffffffffffffffffffffffffffffffffffffffff168152602001908152602001600020548152602001908152602001600020540160046000600560003373ffffffffffffffffffffffffffffffffffffffff1673ffffffffffffffffffffffffffffffffffffffff168152602001908152602001600020548152602001908152602001600020819055507f64bddcd718f7ebcfc6dbdfd2592731fea8f36b979c86ebce078d91c76797089c858585856040516106529493929190611a5e565b60405180910390a1505050505050565b5050565b6000600560003373ffffffffffffffffffffffffffffffffffffffff1673ffffffffffffffffffffffffffffffffffffffff16815260200190815260200160002054905090565b6106b5611288565b60405180604001604052804281526020018381525090506000803373ffffffffffffffffffffffffffffffffffffffff1673ffffffffffffffffffffffffffffffffffffffff1681526020019081526020016000208190806001815401808255809150509060018203906000526020600020906002020160009091929091909150600082015181600001556020820151816001015550505060018060003373ffffffffffffffffffffffffffffffffffffffff1673ffffffffffffffffffffffffffffffffffffffff16815260200190815260200160002060040160006101000a81548160ff02191690831515021790555042600160003373ffffffffffffffffffffffffffffffffffffffff1673ffffffffffffffffffffffffffffffffffffffff168152602001908152602001600020600301819055507fa49f6cdb7bee1202f270e77122ed51a8c7c97ba40eff357573110cca9fa1f4d73360405161081d91906119e4565b60405180910390a1610e748211156108a5577f262bc8a0861f18d358f4211a8a90a70c385a23da5bd68429ac007aee64757d83600160003373ffffffffffffffffffffffffffffffffffffffff1673ffffffffffffffffffffffffffffffffffffffff16815260200190815260200160002060405161089c9190611abb565b60405180910390a15b5050565b60606000600284846040516108bf9291906119b4565b908152602001604051809103902060009054906101000a900473ffffffffffffffffffffffffffffffffffffffff1690506000808273ffffffffffffffffffffffffffffffffffffffff1673ffffffffffffffffffffffffffffffffffffffff168152602001908152602001600020805480602002602001604051908101604052809291908181526020016000905b828210156109945783829060005260206000209060020201604051806040016040529081600082015481526020016001820154815250508152602001906001019061094e565b5050505091505092915050565b6000600160003373ffffffffffffffffffffffffffffffffffffffff1673ffffffffffffffffffffffffffffffffffffffff16815260200190815260200160002060060160009054906101000a900460ff1615610a015760019050610a06565b600090505b90565b610a11611147565b600060028484604051610a259291906119b4565b908152602001604051809103902060009054906101000a900473ffffffffffffffffffffffffffffffffffffffff169050600160008273ffffffffffffffffffffffffffffffffffffffff1673ffffffffffffffffffffffffffffffffffffffff1681526020019081526020016000206040518060e0016040529081600082018054600181600116156101000203166002900480601f016020809104026020016040519081016040528092919081815260200182805460018160011615610100020316600290048015610b395780601f10610b0e57610100808354040283529160200191610b39565b820191906000526020600020905b815481529060010190602001808311610b1c57829003601f168201915b50505050508152602001600182018054600181600116156101000203166002900480601f016020809104026020016040519081016040528092919081815260200182805460018160011615610100020316600290048015610bdb5780601f10610bb057610100808354040283529160200191610bdb565b820191906000526020600020905b815481529060010190602001808311610bbe57829003601f168201915b5050505050815260200160028201548152602001600382015481526020016004820160009054906101000a900460ff16151515158152602001600582015481526020016006820160009054906101000a900460ff16151515158152505091505092915050565b600060066000600560003373ffffffffffffffffffffffffffffffffffffffff1673ffffffffffffffffffffffffffffffffffffffff16815260200190815260200160002054815260200190815260200160002054905090565b60608060046000600560003373ffffffffffffffffffffffffffffffffffffffff1673ffffffffffffffffffffffffffffffffffffffff16815260200190815260200160002054815260200190815260200160002054604051908082528060200260200182016040528015610d2a57816020015b610d176112a2565b815260200190600190039081610d0f5790505b50905060008090506000809050600091505b60046000600560003373ffffffffffffffffffffffffffffffffffffffff1673ffffffffffffffffffffffffffffffffffffffff1681526020019081526020016000205481526020019081526020016000205482101561113e5760016000600260036000600560003373ffffffffffffffffffffffffffffffffffffffff1673ffffffffffffffffffffffffffffffffffffffff1681526020019081526020016000205481526020019081526020016000208581548110610df957fe5b90600052602060002001604051610e1091906119cd565b908152602001604051809103902060009054906101000a900473ffffffffffffffffffffffffffffffffffffffff1673ffffffffffffffffffffffffffffffffffffffff1673ffffffffffffffffffffffffffffffffffffffff16815260200190815260200160002060060160009054906101000a900460ff16156111335760016000600260036000600560003373ffffffffffffffffffffffffffffffffffffffff1673ffffffffffffffffffffffffffffffffffffffff1681526020019081526020016000205481526020019081526020016000208581548110610ef257fe5b90600052602060002001604051610f0991906119cd565b908152602001604051809103902060009054906101000a900473ffffffffffffffffffffffffffffffffffffffff1673ffffffffffffffffffffffffffffffffffffffff1673ffffffffffffffffffffffffffffffffffffffff1681526020019081526020016000206040518060e0016040529081600082018054600181600116156101000203166002900480601f0160208091040260200160405190810160405280929190818152602001828054600181600116156101000203166002900480156110165780601f10610feb57610100808354040283529160200191611016565b820191906000526020600020905b815481529060010190602001808311610ff957829003601f168201915b50505050508152602001600182018054600181600116156101000203166002900480601f0160208091040260200160405190810160405280929190818152602001828054600181600116156101000203166002900480156110b85780601f1061108d576101008083540402835291602001916110b8565b820191906000526020600020905b81548152906001019060200180831161109b57829003601f168201915b5050505050815260200160028201548152602001600382015481526020016004820160009054906101000a900460ff16151515158152602001600582015481526020016006820160009054906101000a900460ff16151515158152505083828151811061112157fe5b60200260200101819052508060010190505b816001019150610d3c565b82935050505090565b6040518060e0016040528060608152602001606081526020016000815260200160008152602001600015158152602001600081526020016000151581525090565b828054600181600116156101000203166002900490600052602060002090601f016020900481019282601f106111c957805160ff19168380011785556111f7565b828001600101855582156111f7579182015b828111156111f65782518255916020019190600101906111db565b5b50905061120491906112e3565b5090565b828054600181600116156101000203166002900490600052602060002090601f016020900481019282601f1061124957803560ff1916838001178555611277565b82800160010185558215611277579182015b8281111561127657823582559160200191906001019061125b565b5b50905061128491906112e3565b5090565b604051806040016040528060008152602001600081525090565b6040518060e0016040528060608152602001606081526020016000815260200160008152602001600015158152602001600081526020016000151581525090565b61130591905b808211156113015760008160009055506001016112e9565b5090565b90565b60008135905061131781611d09565b92915050565b60008083601f84011261132f57600080fd5b8235905067ffffffffffffffff81111561134857600080fd5b60208301915083600182028301111561136057600080fd5b9250929050565b60008135905061137681611d20565b92915050565b60008060008060006060868803121561139457600080fd5b60006113a288828901611308565b955050602086013567ffffffffffffffff8111156113bf57600080fd5b6113cb8882890161131d565b9450945050604086013567ffffffffffffffff8111156113ea57600080fd5b6113f68882890161131d565b92509250509295509295909350565b6000806020838503121561141857600080fd5b600083013567ffffffffffffffff81111561143257600080fd5b61143e8582860161131d565b92509250509250929050565b60006020828403121561145c57600080fd5b600061146a84828501611367565b91505092915050565b600061147f83836117ea565b905092915050565b60006114938383611967565b60408301905092915050565b6114a881611c3f565b82525050565b60006114b982611b56565b6114c38185611b91565b9350836020820285016114d585611b21565b8060005b8581101561151157848403895281516114f28582611473565b94506114fd83611b77565b925060208a019950506001810190506114d9565b50829750879550505050505092915050565b600061152e82611b61565b6115388185611ba2565b935061154383611b31565b8060005b8381101561157457815161155b8882611487565b975061156683611b84565b925050600181019050611547565b5085935050505092915050565b61158a81611c09565b82525050565b61159981611c09565b82525050565b60006115ab8385611bc4565b93506115b8838584611c75565b6115c183611ceb565b840190509392505050565b60006115d88385611bd5565b93506115e5838584611c75565b82840190509392505050565b60006115fc82611b6c565b6116068185611bb3565b9350611616818560208601611c84565b61161f81611ceb565b840191505092915050565b600081546001811660008114611647576001811461166d576116b1565b607f60028304166116588187611bb3565b955060ff1983168652602086019350506116b1565b6002820461167b8187611bb3565b955061168685611b41565b60005b828110156116a857815481890152600182019150602081019050611689565b80880195505050505b505092915050565b6000815460018116600081146116d657600181146116fb5761173f565b607f60028304166116e78187611bd5565b955060ff198316865280860193505061173f565b600282046117098187611bd5565b955061171485611b41565b60005b8281101561173657815481890152600182019150602081019050611717565b82880195505050505b505092915050565b600060e083016000830151848203600086015261176482826115f1565b9150506020830151848203602086015261177e82826115f1565b91505060408301516117936040860182611996565b5060608301516117a66060860182611996565b5060808301516117b96080860182611581565b5060a08301516117cc60a0860182611996565b5060c08301516117df60c0860182611581565b508091505092915050565b600060e083016000830151848203600086015261180782826115f1565b9150506020830151848203602086015261182182826115f1565b91505060408301516118366040860182611996565b5060608301516118496060860182611996565b50608083015161185c6080860182611581565b5060a083015161186f60a0860182611996565b5060c083015161188260c0860182611581565b508091505092915050565b600060e08301600080840185830360008701526118aa838261162a565b9250506001840185830360208701526118c3838261162a565b925050600284015490506118d681611cd1565b6118e36040870182611996565b50600384015490506118f481611cd1565b6119016060870182611996565b506004840154905061191281611cb7565b61191f6080870182611581565b506005840154905061193081611cd1565b61193d60a0870182611996565b506006840154905061194e81611cb7565b61195b60c0870182611581565b50819250505092915050565b60408201600082015161197d6000850182611996565b5060208201516119906020850182611996565b50505050565b61199f81611c35565b82525050565b6119ae81611c35565b82525050565b60006119c18284866115cc565b91508190509392505050565b60006119d982846116b9565b915081905092915050565b60006020820190506119f9600083018461149f565b92915050565b60006020820190508181036000830152611a1981846114ae565b905092915050565b60006020820190508181036000830152611a3b8184611523565b905092915050565b6000602082019050611a586000830184611590565b92915050565b60006040820190508181036000830152611a7981868861159f565b90508181036020830152611a8e81848661159f565b905095945050505050565b60006020820190508181036000830152611ab38184611747565b905092915050565b60006020820190508181036000830152611ad5818461188d565b905092915050565b6000602082019050611af260008301846119a5565b92915050565b6000604082019050611b0d60008301856119a5565b611b1a602083018461149f565b9392505050565b6000819050602082019050919050565b6000819050602082019050919050565b60008190508160005260206000209050919050565b600081519050919050565b600081519050919050565b600081519050919050565b6000602082019050919050565b6000602082019050919050565b600082825260208201905092915050565b600082825260208201905092915050565b600082825260208201905092915050565b600082825260208201905092915050565b600081905092915050565b600060ff82169050919050565b6000819050919050565b6000611c0282611c15565b9050919050565b60008115159050919050565b600073ffffffffffffffffffffffffffffffffffffffff82169050919050565b6000819050919050565b6000611c4a82611c51565b9050919050565b6000611c5c82611c63565b9050919050565b6000611c6e82611c15565b9050919050565b82818337600083830152505050565b60005b83811015611ca2578082015181840152602081019050611c87565b83811115611cb1576000848401525b50505050565b6000611cca611cc583611cfc565b611be0565b9050919050565b6000611ce4611cdf83611cfc565b611bed565b9050919050565b6000601f19601f8301169050919050565b60008160001c9050919050565b611d1281611bf7565b8114611d1d57600080fd5b50565b611d2981611c35565b8114611d3457600080fd5b5056fea365627a7a72315820614b6df50fd9ca53c01dd1621453e7f9eb8cf5de288b565f18bfee2c719998946c6578706572696d656e74616cf564736f6c63430005100040",
  "source": "// SPDX-License-Identifier: MIT\r\npragma solidity >=0.5.0;\r\npragma experimental ABIEncoderV2;\r\n\r\ncontract SimpleStorage {\r\n\r\n  struct symptoms{\r\n    uint date;\r\n    uint fever;\r\n  }\r\n\r\n  struct patientData{\r\n    string CIP;\r\n    string email;\r\n    uint registerTime;\r\n    uint lastCheck;\r\n    bool hasCheckedIn;\r\n    uint CAP;\r\n    //symptoms[] symptomsArray;\r\n    bool exists;\r\n  }\r\n\r\n  mapping(address => symptoms[]) symptomsFromPatient;\r\n  mapping(address => patientData) patients;\r\n  mapping(string => address) addressFromCIP;\r\n  mapping(uint => string[]) patientsFromCAP;\r\n  mapping(uint => uint) activePatientsFromCAP;\r\n  mapping(address => uint) CAPs;\r\n  mapping(uint => uint) CAPThreshold;\r\n\r\n  uint CAPnumber = 0;\r\n\r\n  event patientRegistered(string CIP, string email);\r\n  event CAPRegistered(uint id, address);\r\n  event symptomsAdded(address);\r\n  event patientWithFeverFound(patientData);\r\n\r\n  function registerCAP(uint threshold) external {\r\n    CAPnumber = CAPnumber+1;\r\n    CAPs[msg.sender] = CAPnumber;\r\n    CAPThreshold[CAPnumber] = threshold;\r\n\r\n    emit CAPRegistered(CAPnumber, msg.sender);\r\n  }\r\n\r\n  function registerPatient(address patientAddress, string calldata CIP, string calldata email) external{\r\n    patientData memory data;\r\n    data.CIP = CIP;\r\n    data.email = email;\r\n    data.registerTime = now;\r\n    data.lastCheck = now;\r\n    data.CAP = CAPs[msg.sender];\r\n    data.exists = true;\r\n    patients[patientAddress] = data;\r\n    addressFromCIP[CIP] = patientAddress;\r\n    patientsFromCAP[CAPs[msg.sender]].push(CIP);\r\n    activePatientsFromCAP[CAPs[msg.sender]] = activePatientsFromCAP[CAPs[msg.sender]]+1;\r\n\r\n    emit patientRegistered(CIP,email);\r\n  }\r\n\r\n  function getAllPatientsFromCAP() external view returns( patientData[] memory){\r\n    patientData[] memory ret = new patientData[](activePatientsFromCAP[CAPs[msg.sender]]);\r\n    uint i = 0;\r\n    uint retI = 0;\r\n    for(i=0; i<activePatientsFromCAP[CAPs[msg.sender]]; ++i){\r\n      if(patients[addressFromCIP[patientsFromCAP[CAPs[msg.sender]][i]]].exists){\r\n        ret[retI] = patients[addressFromCIP[patientsFromCAP[CAPs[msg.sender]][i]]];\r\n        ++retI;\r\n      }\r\n    }\r\n    return ret;\r\n  }\r\n\r\n  function getSymptomsfromCIP(string calldata CIP) external returns(symptoms[] memory){\r\n    address patient = addressFromCIP[CIP];\r\n    return symptomsFromPatient[patient];\r\n  }\r\n\r\n  function getPatientfromCIP(string calldata CIP) external returns(patientData memory){\r\n    address patient = addressFromCIP[CIP];\r\n    return patients[patient];\r\n  }\r\n\r\n  function searchPatientSymptoms(string calldata CIP) external {\r\n    //symptomsFromPatient[address];\r\n  }\r\n\r\n  function addSymptoms(uint fever) public {\r\n    symptoms memory data = symptoms({date: now, fever:fever});\r\n    symptomsFromPatient[msg.sender].push(data);\r\n    patients[msg.sender].hasCheckedIn = true;\r\n    patients[msg.sender].lastCheck = now;\r\n\r\n\r\n    emit symptomsAdded(msg.sender);\r\n    if(fever > 3700){\r\n      emit patientWithFeverFound(patients[msg.sender]);\r\n    }\r\n  }\r\n\r\n  function getCAPThreshold() external view returns(uint){\r\n    return CAPThreshold[CAPs[msg.sender]];\r\n  }\r\n\r\n  function getCAPNumber() external view returns(uint){\r\n    return CAPs[msg.sender];\r\n  }\r\n\r\n  function patientExists() external returns(bool){\r\n    if(patients[msg.sender].exists) return true;\r\n    return false;\r\n  }\r\n  \r\n}\r\n",
  "sourcePath": "G:/VID/hackaton/project/Wanikaniers/CAPClient/contracts/SimpleStorage.sol",
  "compiler": {
    "name": "solc",
    "version": "0.5.16+commit.9c3226ce.Emscripten.clang"
  },
  "schemaVersion": "3.0.22",
  "updatedAt": "2020-12-20T09:44:30.564Z",
  "networkType": "ethereum",
  "devdoc": {
    "methods": {}
  },
  "userdoc": {
    "methods": {}
  }
}